{
  "contractName": "AlyraStaking",
  "abi": [
    {
      "inputs": [
        {
          "internalType": "address",
          "name": "sdoAddress",
          "type": "address"
        }
      ],
      "stateMutability": "nonpayable",
      "type": "constructor"
    },
    {
      "anonymous": false,
      "inputs": [
        {
          "indexed": false,
          "internalType": "address",
          "name": "tokenAddress",
          "type": "address"
        },
        {
          "indexed": false,
          "internalType": "uint256",
          "name": "amount",
          "type": "uint256"
        }
      ],
      "name": "TokenStaked",
      "type": "event"
    },
    {
      "anonymous": false,
      "inputs": [
        {
          "indexed": false,
          "internalType": "address",
          "name": "tokenAddress",
          "type": "address"
        },
        {
          "indexed": false,
          "internalType": "uint256",
          "name": "amount",
          "type": "uint256"
        }
      ],
      "name": "TokenWithdraw",
      "type": "event"
    },
    {
      "inputs": [
        {
          "internalType": "address",
          "name": "",
          "type": "address"
        },
        {
          "internalType": "address",
          "name": "",
          "type": "address"
        }
      ],
      "name": "stakingUserBalance",
      "outputs": [
        {
          "internalType": "address",
          "name": "tokenAddress",
          "type": "address"
        },
        {
          "internalType": "uint256",
          "name": "stakedAmount",
          "type": "uint256"
        },
        {
          "internalType": "uint256",
          "name": "lastTransactionDate",
          "type": "uint256"
        }
      ],
      "stateMutability": "view",
      "type": "function",
      "constant": true
    },
    {
      "inputs": [
        {
          "internalType": "address",
          "name": "tokenAddress",
          "type": "address"
        },
        {
          "internalType": "uint256",
          "name": "amount",
          "type": "uint256"
        }
      ],
      "name": "stakeToken",
      "outputs": [
        {
          "internalType": "uint256",
          "name": "",
          "type": "uint256"
        }
      ],
      "stateMutability": "nonpayable",
      "type": "function"
    },
    {
      "inputs": [
        {
          "internalType": "address",
          "name": "userAddress",
          "type": "address"
        },
        {
          "internalType": "address",
          "name": "tokenAddress",
          "type": "address"
        }
      ],
      "name": "getUserBalance",
      "outputs": [
        {
          "internalType": "uint256",
          "name": "",
          "type": "uint256"
        }
      ],
      "stateMutability": "view",
      "type": "function",
      "constant": true
    },
    {
      "inputs": [],
      "name": "getSDOTokenAddress",
      "outputs": [
        {
          "internalType": "address",
          "name": "",
          "type": "address"
        }
      ],
      "stateMutability": "view",
      "type": "function",
      "constant": true
    }
  ],
  "bytecode": "0x6080604052604051610010906100e1565b604051809103906000f08015801561002c573d6000803e3d6000fd5b50600260006101000a81548173ffffffffffffffffffffffffffffffffffffffff021916908373ffffffffffffffffffffffffffffffffffffffff16021790555034801561007957600080fd5b50604051610f2a380380610f2a833981810160405281019061009b9190610151565b806000806101000a81548173ffffffffffffffffffffffffffffffffffffffff021916908373ffffffffffffffffffffffffffffffffffffffff1602179055505061017e565b61037680610bb483390190565b600080fd5b600073ffffffffffffffffffffffffffffffffffffffff82169050919050565b600061011e826100f3565b9050919050565b61012e81610113565b811461013957600080fd5b50565b60008151905061014b81610125565b92915050565b600060208284031215610167576101666100ee565b5b60006101758482850161013c565b91505092915050565b610a278061018d6000396000f3fe608060405234801561001057600080fd5b5060043610610069576000357c0100000000000000000000000000000000000000000000000000000000900480631a21dfb11461006e5780636805d6ad1461008c578063bca4a2ee146100bc578063f739ed9e146100ee575b600080fd5b61007661011e565b60405161008391906106c7565b60405180910390f35b6100a660048036038101906100a19190610713565b610147565b6040516100b3919061076c565b60405180910390f35b6100d660048036038101906100d19190610713565b6101d1565b6040516100e593929190610787565b60405180910390f35b610108600480360381019061010391906107ea565b610228565b604051610115919061076c565b60405180910390f35b60008060009054906101000a900473ffffffffffffffffffffffffffffffffffffffff16905090565b6000600160008473ffffffffffffffffffffffffffffffffffffffff1673ffffffffffffffffffffffffffffffffffffffff16815260200190815260200160002060008373ffffffffffffffffffffffffffffffffffffffff1673ffffffffffffffffffffffffffffffffffffffff16815260200190815260200160002060010154905092915050565b6001602052816000526040600020602052806000526040600020600091509150508060000160009054906101000a900473ffffffffffffffffffffffffffffffffffffffff16908060010154908060020154905083565b600080821161026c576040517f08c379a000000000000000000000000000000000000000000000000000000000815260040161026390610887565b60405180910390fd5b8273ffffffffffffffffffffffffffffffffffffffff166323b872dd3330856040518463ffffffff167c01000000000000000000000000000000000000000000000000000000000281526004016102c5939291906108a7565b602060405180830381600087803b1580156102df57600080fd5b505af11580156102f3573d6000803e3d6000fd5b505050506040513d601f19601f820116820180604052508101906103179190610916565b506000600160003373ffffffffffffffffffffffffffffffffffffffff1673ffffffffffffffffffffffffffffffffffffffff16815260200190815260200160002060008573ffffffffffffffffffffffffffffffffffffffff1673ffffffffffffffffffffffffffffffffffffffff1681526020019081526020016000206001015414156104b657600060405180606001604052808573ffffffffffffffffffffffffffffffffffffffff16815260200184815260200142815250905080600160003373ffffffffffffffffffffffffffffffffffffffff1673ffffffffffffffffffffffffffffffffffffffff16815260200190815260200160002060008673ffffffffffffffffffffffffffffffffffffffff1673ffffffffffffffffffffffffffffffffffffffff16815260200190815260200160002060008201518160000160006101000a81548173ffffffffffffffffffffffffffffffffffffffff021916908373ffffffffffffffffffffffffffffffffffffffff1602179055506020820151816001015560408201518160020155905050506105c5565b81600160003373ffffffffffffffffffffffffffffffffffffffff1673ffffffffffffffffffffffffffffffffffffffff16815260200190815260200160002060008573ffffffffffffffffffffffffffffffffffffffff1673ffffffffffffffffffffffffffffffffffffffff168152602001908152602001600020600101546105419190610972565b600160003373ffffffffffffffffffffffffffffffffffffffff1673ffffffffffffffffffffffffffffffffffffffff16815260200190815260200160002060008573ffffffffffffffffffffffffffffffffffffffff1673ffffffffffffffffffffffffffffffffffffffff168152602001908152602001600020600101819055505b7f1fdab8a8457aaf782e4b6217d6ffa6f5006eda7e50922dd092b2e1524275d77483836040516105f69291906109c8565b60405180910390a1600160003373ffffffffffffffffffffffffffffffffffffffff1673ffffffffffffffffffffffffffffffffffffffff16815260200190815260200160002060008473ffffffffffffffffffffffffffffffffffffffff1673ffffffffffffffffffffffffffffffffffffffff16815260200190815260200160002060010154905092915050565b600073ffffffffffffffffffffffffffffffffffffffff82169050919050565b60006106b182610686565b9050919050565b6106c1816106a6565b82525050565b60006020820190506106dc60008301846106b8565b92915050565b600080fd5b6106f0816106a6565b81146106fb57600080fd5b50565b60008135905061070d816106e7565b92915050565b6000806040838503121561072a576107296106e2565b5b6000610738858286016106fe565b9250506020610749858286016106fe565b9150509250929050565b6000819050919050565b61076681610753565b82525050565b6000602082019050610781600083018461075d565b92915050565b600060608201905061079c60008301866106b8565b6107a9602083018561075d565b6107b6604083018461075d565b949350505050565b6107c781610753565b81146107d257600080fd5b50565b6000813590506107e4816107be565b92915050565b60008060408385031215610801576108006106e2565b5b600061080f858286016106fe565b9250506020610820858286016107d5565b9150509250929050565b600082825260208201905092915050565b7f596f752063616e6e6f74207374616b65203020746f6b656e0000000000000000600082015250565b600061087160188361082a565b915061087c8261083b565b602082019050919050565b600060208201905081810360008301526108a081610864565b9050919050565b60006060820190506108bc60008301866106b8565b6108c960208301856106b8565b6108d6604083018461075d565b949350505050565b60008115159050919050565b6108f3816108de565b81146108fe57600080fd5b50565b600081519050610910816108ea565b92915050565b60006020828403121561092c5761092b6106e2565b5b600061093a84828501610901565b91505092915050565b7f4e487b7100000000000000000000000000000000000000000000000000000000600052601160045260246000fd5b600061097d82610753565b915061098883610753565b9250827fffffffffffffffffffffffffffffffffffffffffffffffffffffffffffffffff038211156109bd576109bc610943565b5b828201905092915050565b60006040820190506109dd60008301856106b8565b6109ea602083018461075d565b939250505056fea2646970667358221220e48f67f3d43b0d59454302166055d5e0bca954d12e2ce5a96f9341a6d4fc2b6864736f6c63430008090033608060405234801561001057600080fd5b50610356806100206000396000f3fe608060405234801561001057600080fd5b5060043610610048576000357c01000000000000000000000000000000000000000000000000000000009004806316345f181461004d575b600080fd5b610067600480360381019061006291906101a0565b61007d565b60405161007491906101e6565b60405180910390f35b60008082905060008060008060008573ffffffffffffffffffffffffffffffffffffffff1663feaf968c6040518163ffffffff167c010000000000000000000000000000000000000000000000000000000002815260040160a06040518083038186803b1580156100ed57600080fd5b505afa158015610101573d6000803e3d6000fd5b505050506040513d601f19601f8201168201806040525081019061012591906102a5565b94509450945094509450839650505050505050919050565b600080fd5b600073ffffffffffffffffffffffffffffffffffffffff82169050919050565b600061016d82610142565b9050919050565b61017d81610162565b811461018857600080fd5b50565b60008135905061019a81610174565b92915050565b6000602082840312156101b6576101b561013d565b5b60006101c48482850161018b565b91505092915050565b6000819050919050565b6101e0816101cd565b82525050565b60006020820190506101fb60008301846101d7565b92915050565b600069ffffffffffffffffffff82169050919050565b61022081610201565b811461022b57600080fd5b50565b60008151905061023d81610217565b92915050565b61024c816101cd565b811461025757600080fd5b50565b60008151905061026981610243565b92915050565b6000819050919050565b6102828161026f565b811461028d57600080fd5b50565b60008151905061029f81610279565b92915050565b600080600080600060a086880312156102c1576102c061013d565b5b60006102cf8882890161022e565b95505060206102e08882890161025a565b94505060406102f188828901610290565b935050606061030288828901610290565b92505060806103138882890161022e565b915050929550929590935056fea26469706673582212202e26c7d2e6c73787202d81bdd92243cad505428472ccde0b2f49f5ff1fa62b1464736f6c63430008090033",
  "immutableReferences": {},
  "source": "// SPDX-License-Identifier: MIT\r\npragma solidity ^0.8.0;\r\n\r\nimport \"@openzeppelin/contracts/token/ERC20/ERC20.sol\";\r\nimport \"@openzeppelin/contracts/token/ERC20/IERC20.sol\";\r\nimport \"./PriceConsumerV3.sol\";\r\n\r\ncontract AlyraStaking {\r\n    IERC20 SdoToken;\r\n\r\n    // ========= Entities =========\r\n\r\n    struct Token {\r\n        address tokenAddress;\r\n        uint256 stakedAmount;\r\n        uint256 lastTransactionDate;\r\n    }\r\n\r\n    // ========= Variables =========\r\n\r\n    //stakingUserBalance between adress token and amount\r\n    mapping(address => mapping(address => Token)) public stakingUserBalance;\r\n\r\n    //Oracle init\r\n    PriceConsumerV3 private priceConsumerV3 = new PriceConsumerV3();\r\n\r\n    // ========= Constructor =========\r\n    constructor(address sdoAddress) {\r\n        SdoToken = IERC20(sdoAddress);\r\n    }\r\n\r\n    // ========= Events =========\r\n    event TokenStaked(address tokenAddress, uint256 amount);\r\n    event TokenWithdraw(address tokenAddress, uint256 amount);\r\n\r\n    // =============================== Functions ===============================\r\n\r\n    /// @notice Stake an amount of a specific ERC20 token\r\n    /// @param tokenAddress address of the staked token\r\n    /// @param amount staked amount\r\n    function stakeToken(address tokenAddress, uint256 amount)\r\n        public\r\n        returns (uint256)\r\n    {\r\n        require(amount > 0, \"You cannot stake 0 token\");\r\n\r\n        //Transfer amount to smartcontract\r\n        IERC20(tokenAddress).transferFrom(msg.sender, address(this), amount);\r\n\r\n        // TODO : compute reward\r\n\r\n        if (stakingUserBalance[msg.sender][tokenAddress].stakedAmount == 0) {\r\n            Token memory userToken = Token(\r\n                tokenAddress,\r\n                amount,\r\n                block.timestamp\r\n            );\r\n            stakingUserBalance[msg.sender][tokenAddress] = userToken;\r\n        } else {\r\n            stakingUserBalance[msg.sender][tokenAddress].stakedAmount =\r\n                stakingUserBalance[msg.sender][tokenAddress].stakedAmount +\r\n                amount;\r\n        }\r\n\r\n        //fire event\r\n        emit TokenStaked(tokenAddress, amount);\r\n\r\n        return stakingUserBalance[msg.sender][tokenAddress].stakedAmount;\r\n    }\r\n\r\n    /// @notice Stake an amount of a specific ERC20 token\r\n    /// @param userAddress address of the user\r\n    /// @param tokenAddress address of the staked token\r\n    function getUserBalance(address userAddress, address tokenAddress)\r\n        public\r\n        view\r\n        returns (uint256)\r\n    {\r\n        return stakingUserBalance[userAddress][tokenAddress].stakedAmount;\r\n    }\r\n\r\n    // ********************* Functions for DAPP *********************\r\n\r\n    function getSDOTokenAddress() public view returns (address) {\r\n        return address(SdoToken);\r\n    }\r\n\r\n    // function getUserTokenAdresses(address owner)\r\n    //     public\r\n    //     view\r\n    //     returns (address[] memory)\r\n    // {\r\n    //     //TODO\r\n    // }\r\n\r\n    // function getStackedToken(address tokenAddress, address owner)\r\n    //     public\r\n    //     view\r\n    //     returns (uint256)\r\n    // {\r\n    //     return stakingUserBalance[owner][tokenAddress];\r\n    // }\r\n}\r\n",
  "sourcePath": "I:\\Developpement\\GIT\\GitHub\\Alyra\\AlyraStacking\\contracts\\AlyraStaking.sol",
  "compiler": {
    "name": "solc",
    "version": "0.8.9+commit.e5eed63a.Emscripten.clang"
  },
  "schemaVersion": "3.4.3",
  "updatedAt": "2022-01-14T16:16:04.252Z",
  "networkType": "ethereum",
  "devdoc": {
    "kind": "dev",
    "methods": {
      "getUserBalance(address,address)": {
        "params": {
          "tokenAddress": "address of the staked token",
          "userAddress": "address of the user"
        }
      },
      "stakeToken(address,uint256)": {
        "params": {
          "amount": "staked amount",
          "tokenAddress": "address of the staked token"
        }
      }
    },
    "version": 1
  },
  "userdoc": {
    "kind": "user",
    "methods": {
      "getUserBalance(address,address)": {
        "notice": "Stake an amount of a specific ERC20 token"
      },
      "stakeToken(address,uint256)": {
        "notice": "Stake an amount of a specific ERC20 token"
      }
    },
    "version": 1
  }
}