{
  "contractName": "AlyraStaking",
  "abi": [
    {
      "inputs": [
        {
          "internalType": "address",
          "name": "sdoAddress",
          "type": "address"
        }
      ],
      "stateMutability": "nonpayable",
      "type": "constructor"
    },
    {
      "anonymous": false,
      "inputs": [
        {
          "indexed": false,
          "internalType": "address",
          "name": "tokenAddress",
          "type": "address"
        },
        {
          "indexed": false,
          "internalType": "uint256",
          "name": "amount",
          "type": "uint256"
        }
      ],
      "name": "TokenStaked",
      "type": "event"
    },
    {
      "anonymous": false,
      "inputs": [
        {
          "indexed": false,
          "internalType": "address",
          "name": "tokenAddress",
          "type": "address"
        },
        {
          "indexed": false,
          "internalType": "uint256",
          "name": "amount",
          "type": "uint256"
        }
      ],
      "name": "TokenWithdraw",
      "type": "event"
    },
    {
      "inputs": [
        {
          "internalType": "address",
          "name": "",
          "type": "address"
        },
        {
          "internalType": "address",
          "name": "",
          "type": "address"
        }
      ],
      "name": "_stakingUserBalance",
      "outputs": [
        {
          "internalType": "address",
          "name": "tokenAddress",
          "type": "address"
        },
        {
          "internalType": "uint256",
          "name": "stakedAmount",
          "type": "uint256"
        },
        {
          "internalType": "uint256",
          "name": "lastTransactionDate",
          "type": "uint256"
        }
      ],
      "stateMutability": "view",
      "type": "function",
      "constant": true
    },
    {
      "inputs": [
        {
          "internalType": "address",
          "name": "tokenAddress",
          "type": "address"
        },
        {
          "internalType": "uint256",
          "name": "amount",
          "type": "uint256"
        }
      ],
      "name": "stakeToken",
      "outputs": [
        {
          "internalType": "uint256",
          "name": "",
          "type": "uint256"
        }
      ],
      "stateMutability": "nonpayable",
      "type": "function"
    },
    {
      "inputs": [
        {
          "internalType": "address",
          "name": "userAddress",
          "type": "address"
        },
        {
          "internalType": "address",
          "name": "tokenAddress",
          "type": "address"
        }
      ],
      "name": "getUserBalance",
      "outputs": [
        {
          "internalType": "uint256",
          "name": "",
          "type": "uint256"
        }
      ],
      "stateMutability": "view",
      "type": "function",
      "constant": true
    },
    {
      "inputs": [],
      "name": "getSDOTokenAddress",
      "outputs": [
        {
          "internalType": "address",
          "name": "",
          "type": "address"
        }
      ],
      "stateMutability": "view",
      "type": "function",
      "constant": true
    },
    {
      "inputs": [],
      "name": "getStakedTokens",
      "outputs": [
        {
          "components": [
            {
              "internalType": "address",
              "name": "tokenAddress",
              "type": "address"
            },
            {
              "internalType": "uint256",
              "name": "stakedAmount",
              "type": "uint256"
            },
            {
              "internalType": "uint256",
              "name": "lastTransactionDate",
              "type": "uint256"
            }
          ],
          "internalType": "struct AlyraStaking.Token[]",
          "name": "",
          "type": "tuple[]"
        }
      ],
      "stateMutability": "view",
      "type": "function",
      "constant": true
    }
  ],
  "bytecode": "0x60806040526040516200001290620000ea565b604051809103906000f0801580156200002f573d6000803e3d6000fd5b50600460006101000a81548173ffffffffffffffffffffffffffffffffffffffff021916908373ffffffffffffffffffffffffffffffffffffffff1602179055503480156200007d57600080fd5b5060405162001385380380620013858339818101604052810190620000a3919062000162565b806000806101000a81548173ffffffffffffffffffffffffffffffffffffffff021916908373ffffffffffffffffffffffffffffffffffffffff1602179055505062000194565b610376806200100f83390190565b600080fd5b600073ffffffffffffffffffffffffffffffffffffffff82169050919050565b60006200012a82620000fd565b9050919050565b6200013c816200011d565b81146200014857600080fd5b50565b6000815190506200015c8162000131565b92915050565b6000602082840312156200017b576200017a620000f8565b5b60006200018b848285016200014b565b91505092915050565b610e6b80620001a46000396000f3fe608060405234801561001057600080fd5b5060043610610074576000357c0100000000000000000000000000000000000000000000000000000000900480630e469a7c146100795780631a21dfb11461009757806344954355146100b55780636805d6ad146100e7578063f739ed9e14610117575b600080fd5b610081610147565b60405161008e9190610a17565b60405180910390f35b61009f610210565b6040516100ac9190610a48565b60405180910390f35b6100cf60048036038101906100ca9190610a94565b610239565b6040516100de93929190610ae3565b60405180910390f35b61010160048036038101906100fc9190610a94565b610290565b60405161010e9190610b1a565b60405180910390f35b610131600480360381019061012c9190610b61565b61031a565b60405161013e9190610b1a565b60405180910390f35b60606002805480602002602001604051908101604052809291908181526020016000905b8282101561020757838290600052602060002090600302016040518060600160405290816000820160009054906101000a900473ffffffffffffffffffffffffffffffffffffffff1673ffffffffffffffffffffffffffffffffffffffff1673ffffffffffffffffffffffffffffffffffffffff168152602001600182015481526020016002820154815250508152602001906001019061016b565b50505050905090565b60008060009054906101000a900473ffffffffffffffffffffffffffffffffffffffff16905090565b6001602052816000526040600020602052806000526040600020600091509150508060000160009054906101000a900473ffffffffffffffffffffffffffffffffffffffff16908060010154908060020154905083565b6000600160008473ffffffffffffffffffffffffffffffffffffffff1673ffffffffffffffffffffffffffffffffffffffff16815260200190815260200160002060008373ffffffffffffffffffffffffffffffffffffffff1673ffffffffffffffffffffffffffffffffffffffff16815260200190815260200160002060010154905092915050565b600080821161035e576040517f08c379a000000000000000000000000000000000000000000000000000000000815260040161035590610bfe565b60405180910390fd5b8273ffffffffffffffffffffffffffffffffffffffff166323b872dd3330856040518463ffffffff167c01000000000000000000000000000000000000000000000000000000000281526004016103b793929190610c1e565b602060405180830381600087803b1580156103d157600080fd5b505af11580156103e5573d6000803e3d6000fd5b505050506040513d601f19601f820116820180604052508101906104099190610c8d565b5060006001600360008673ffffffffffffffffffffffffffffffffffffffff1673ffffffffffffffffffffffffffffffffffffffff168152602001908152602001600020546104589190610cf3565b90507fffffffffffffffffffffffffffffffffffffffffffffffffffffffffffffffff81141561058957600260405180606001604052808673ffffffffffffffffffffffffffffffffffffffff16815260200185815260200142815250908060018154018082558091505060019003906000526020600020906003020160009091909190915060008201518160000160006101000a81548173ffffffffffffffffffffffffffffffffffffffff021916908373ffffffffffffffffffffffffffffffffffffffff16021790555060208201518160010155604082015181600201555050600280549050600360008673ffffffffffffffffffffffffffffffffffffffff1673ffffffffffffffffffffffffffffffffffffffff168152602001908152602001600020819055506105d5565b60006002828154811061059f5761059e610d87565b5b90600052602060002090600302019050838160010160008282546105c39190610db6565b92505081905550428160020181905550505b6000600160003373ffffffffffffffffffffffffffffffffffffffff1673ffffffffffffffffffffffffffffffffffffffff16815260200190815260200160002060008673ffffffffffffffffffffffffffffffffffffffff1673ffffffffffffffffffffffffffffffffffffffff16815260200190815260200160002060010154141561077357600060405180606001604052808673ffffffffffffffffffffffffffffffffffffffff16815260200185815260200142815250905080600160003373ffffffffffffffffffffffffffffffffffffffff1673ffffffffffffffffffffffffffffffffffffffff16815260200190815260200160002060008773ffffffffffffffffffffffffffffffffffffffff1673ffffffffffffffffffffffffffffffffffffffff16815260200190815260200160002060008201518160000160006101000a81548173ffffffffffffffffffffffffffffffffffffffff021916908373ffffffffffffffffffffffffffffffffffffffff16021790555060208201518160010155604082015181600201559050505061080a565b82600160003373ffffffffffffffffffffffffffffffffffffffff1673ffffffffffffffffffffffffffffffffffffffff16815260200190815260200160002060008673ffffffffffffffffffffffffffffffffffffffff1673ffffffffffffffffffffffffffffffffffffffff16815260200190815260200160002060010160008282546108029190610db6565b925050819055505b7f1fdab8a8457aaf782e4b6217d6ffa6f5006eda7e50922dd092b2e1524275d774848460405161083b929190610e0c565b60405180910390a1600160003373ffffffffffffffffffffffffffffffffffffffff1673ffffffffffffffffffffffffffffffffffffffff16815260200190815260200160002060008573ffffffffffffffffffffffffffffffffffffffff1673ffffffffffffffffffffffffffffffffffffffff1681526020019081526020016000206001015491505092915050565b600081519050919050565b600082825260208201905092915050565b6000819050602082019050919050565b600073ffffffffffffffffffffffffffffffffffffffff82169050919050565b6000610923826108f8565b9050919050565b61093381610918565b82525050565b6000819050919050565b61094c81610939565b82525050565b606082016000820151610968600085018261092a565b50602082015161097b6020850182610943565b50604082015161098e6040850182610943565b50505050565b60006109a08383610952565b60608301905092915050565b6000602082019050919050565b60006109c4826108cc565b6109ce81856108d7565b93506109d9836108e8565b8060005b83811015610a0a5781516109f18882610994565b97506109fc836109ac565b9250506001810190506109dd565b5085935050505092915050565b60006020820190508181036000830152610a3181846109b9565b905092915050565b610a4281610918565b82525050565b6000602082019050610a5d6000830184610a39565b92915050565b600080fd5b610a7181610918565b8114610a7c57600080fd5b50565b600081359050610a8e81610a68565b92915050565b60008060408385031215610aab57610aaa610a63565b5b6000610ab985828601610a7f565b9250506020610aca85828601610a7f565b9150509250929050565b610add81610939565b82525050565b6000606082019050610af86000830186610a39565b610b056020830185610ad4565b610b126040830184610ad4565b949350505050565b6000602082019050610b2f6000830184610ad4565b92915050565b610b3e81610939565b8114610b4957600080fd5b50565b600081359050610b5b81610b35565b92915050565b60008060408385031215610b7857610b77610a63565b5b6000610b8685828601610a7f565b9250506020610b9785828601610b4c565b9150509250929050565b600082825260208201905092915050565b7f596f752063616e6e6f74207374616b65203020746f6b656e0000000000000000600082015250565b6000610be8601883610ba1565b9150610bf382610bb2565b602082019050919050565b60006020820190508181036000830152610c1781610bdb565b9050919050565b6000606082019050610c336000830186610a39565b610c406020830185610a39565b610c4d6040830184610ad4565b949350505050565b60008115159050919050565b610c6a81610c55565b8114610c7557600080fd5b50565b600081519050610c8781610c61565b92915050565b600060208284031215610ca357610ca2610a63565b5b6000610cb184828501610c78565b91505092915050565b6000819050919050565b7f4e487b7100000000000000000000000000000000000000000000000000000000600052601160045260246000fd5b6000610cfe82610cba565b9150610d0983610cba565b9250827f800000000000000000000000000000000000000000000000000000000000000001821260008412151615610d4457610d43610cc4565b5b827f7fffffffffffffffffffffffffffffffffffffffffffffffffffffffffffffff018213600084121615610d7c57610d7b610cc4565b5b828203905092915050565b7f4e487b7100000000000000000000000000000000000000000000000000000000600052603260045260246000fd5b6000610dc182610939565b9150610dcc83610939565b9250827fffffffffffffffffffffffffffffffffffffffffffffffffffffffffffffffff03821115610e0157610e00610cc4565b5b828201905092915050565b6000604082019050610e216000830185610a39565b610e2e6020830184610ad4565b939250505056fea264697066735822122091a349eb4f647f3f341b6b4004ed93f5987a5710d29ba67d43e465136ac2461264736f6c63430008090033608060405234801561001057600080fd5b50610356806100206000396000f3fe608060405234801561001057600080fd5b5060043610610048576000357c01000000000000000000000000000000000000000000000000000000009004806316345f181461004d575b600080fd5b610067600480360381019061006291906101a0565b61007d565b60405161007491906101e6565b60405180910390f35b60008082905060008060008060008573ffffffffffffffffffffffffffffffffffffffff1663feaf968c6040518163ffffffff167c010000000000000000000000000000000000000000000000000000000002815260040160a06040518083038186803b1580156100ed57600080fd5b505afa158015610101573d6000803e3d6000fd5b505050506040513d601f19601f8201168201806040525081019061012591906102a5565b94509450945094509450839650505050505050919050565b600080fd5b600073ffffffffffffffffffffffffffffffffffffffff82169050919050565b600061016d82610142565b9050919050565b61017d81610162565b811461018857600080fd5b50565b60008135905061019a81610174565b92915050565b6000602082840312156101b6576101b561013d565b5b60006101c48482850161018b565b91505092915050565b6000819050919050565b6101e0816101cd565b82525050565b60006020820190506101fb60008301846101d7565b92915050565b600069ffffffffffffffffffff82169050919050565b61022081610201565b811461022b57600080fd5b50565b60008151905061023d81610217565b92915050565b61024c816101cd565b811461025757600080fd5b50565b60008151905061026981610243565b92915050565b6000819050919050565b6102828161026f565b811461028d57600080fd5b50565b60008151905061029f81610279565b92915050565b600080600080600060a086880312156102c1576102c061013d565b5b60006102cf8882890161022e565b95505060206102e08882890161025a565b94505060406102f188828901610290565b935050606061030288828901610290565b92505060806103138882890161022e565b915050929550929590935056fea26469706673582212202e26c7d2e6c73787202d81bdd92243cad505428472ccde0b2f49f5ff1fa62b1464736f6c63430008090033",
  "immutableReferences": {},
  "source": "// SPDX-License-Identifier: MIT\r\npragma solidity ^0.8.0;\r\n\r\nimport \"@openzeppelin/contracts/token/ERC20/ERC20.sol\";\r\nimport \"@openzeppelin/contracts/token/ERC20/IERC20.sol\";\r\nimport \"./PriceConsumerV3.sol\";\r\n\r\ncontract AlyraStaking {\r\n    IERC20 SdoToken; // the reward token\r\n\r\n    // ========= Entities =========\r\n\r\n    struct Token {\r\n        address tokenAddress;\r\n        uint256 stakedAmount;\r\n        uint256 lastTransactionDate;\r\n    }\r\n\r\n    // ========= Variables =========\r\n\r\n    //_stakingUserBalance between adress token and amount\r\n    mapping(address => mapping(address => Token)) public _stakingUserBalance;\r\n\r\n    //List of Tokens in smart contract\r\n    Token[] _tokens;\r\n    mapping(address => uint256) _tokensMap; // address - idIndex\r\n\r\n    //Oracle init\r\n    PriceConsumerV3 private priceConsumerV3 = new PriceConsumerV3();\r\n\r\n    // ========= Constructor =========\r\n    constructor(address sdoAddress) {\r\n        SdoToken = IERC20(sdoAddress);\r\n    }\r\n\r\n    // ========= Events =========\r\n    event TokenStaked(address tokenAddress, uint256 amount);\r\n    event TokenWithdraw(address tokenAddress, uint256 amount);\r\n\r\n    // =============================== Functions ===============================\r\n\r\n    /// @notice Stake an amount of a specific ERC20 token\r\n    /// @param tokenAddress address of the staked token\r\n    /// @param amount staked amount\r\n    function stakeToken(address tokenAddress, uint256 amount)\r\n        public\r\n        returns (uint256)\r\n    {\r\n        require(amount > 0, \"You cannot stake 0 token\");\r\n\r\n        //Transfer amount to smartcontract\r\n        IERC20(tokenAddress).transferFrom(msg.sender, address(this), amount);\r\n\r\n        //Add token if not exist on Smart Contract\r\n        int256 arrayIndex = int256(_tokensMap[tokenAddress]) - 1;\r\n        if (arrayIndex == -1) {\r\n            _tokens.push(Token(tokenAddress, amount, block.timestamp));\r\n            _tokensMap[tokenAddress] = _tokens.length;\r\n        } else {\r\n            Token storage currentToken = _tokens[uint256(arrayIndex)];\r\n            currentToken.stakedAmount += amount;\r\n            currentToken.lastTransactionDate = block.timestamp;\r\n        }\r\n\r\n        // TODO : compute reward\r\n\r\n        //Affect staked token to User\r\n        if (_stakingUserBalance[msg.sender][tokenAddress].stakedAmount == 0) {\r\n            Token memory userToken = Token(\r\n                tokenAddress,\r\n                amount,\r\n                block.timestamp\r\n            );\r\n            _stakingUserBalance[msg.sender][tokenAddress] = userToken;\r\n        } else {\r\n            _stakingUserBalance[msg.sender][tokenAddress]\r\n                .stakedAmount += amount;\r\n        }\r\n\r\n        //fire event\r\n        emit TokenStaked(tokenAddress, amount);\r\n\r\n        return _stakingUserBalance[msg.sender][tokenAddress].stakedAmount;\r\n    }\r\n\r\n    /// @notice Stake an amount of a specific ERC20 token\r\n    /// @param userAddress address of the user\r\n    /// @param tokenAddress address of the staked token\r\n    function getUserBalance(address userAddress, address tokenAddress)\r\n        public\r\n        view\r\n        returns (uint256)\r\n    {\r\n        return _stakingUserBalance[userAddress][tokenAddress].stakedAmount;\r\n    }\r\n\r\n    // ********************* Functions for DAPP *********************\r\n\r\n    /// @notice Return address of RewardToken\r\n    function getSDOTokenAddress() public view returns (address) {\r\n        return address(SdoToken);\r\n    }\r\n\r\n    /// @notice Return list of tokens staked on contract\r\n    function getStakedTokens() public view returns (Token[] memory) {\r\n        return _tokens;\r\n    }\r\n}\r\n",
  "sourcePath": "I:\\Developpement\\GIT\\GitHub\\Alyra\\AlyraStacking\\contracts\\AlyraStaking.sol",
  "compiler": {
    "name": "solc",
    "version": "0.8.9+commit.e5eed63a.Emscripten.clang"
  },
  "schemaVersion": "3.4.3",
  "updatedAt": "2022-01-17T09:46:34.183Z",
  "networkType": "ethereum",
  "devdoc": {
    "kind": "dev",
    "methods": {
      "getUserBalance(address,address)": {
        "params": {
          "tokenAddress": "address of the staked token",
          "userAddress": "address of the user"
        }
      },
      "stakeToken(address,uint256)": {
        "params": {
          "amount": "staked amount",
          "tokenAddress": "address of the staked token"
        }
      }
    },
    "version": 1
  },
  "userdoc": {
    "kind": "user",
    "methods": {
      "getSDOTokenAddress()": {
        "notice": "Return address of RewardToken"
      },
      "getStakedTokens()": {
        "notice": "Return list of tokens staked on contract"
      },
      "getUserBalance(address,address)": {
        "notice": "Stake an amount of a specific ERC20 token"
      },
      "stakeToken(address,uint256)": {
        "notice": "Stake an amount of a specific ERC20 token"
      }
    },
    "version": 1
  }
}