{
  "contractName": "AlyraStaking",
  "abi": [
    {
      "inputs": [],
      "stateMutability": "nonpayable",
      "type": "constructor"
    },
    {
      "anonymous": false,
      "inputs": [
        {
          "indexed": false,
          "internalType": "uint256",
          "name": "amount",
          "type": "uint256"
        }
      ],
      "name": "RewardsClaimed",
      "type": "event"
    },
    {
      "anonymous": false,
      "inputs": [
        {
          "indexed": false,
          "internalType": "address",
          "name": "tokenAddress",
          "type": "address"
        },
        {
          "indexed": false,
          "internalType": "uint256",
          "name": "amount",
          "type": "uint256"
        }
      ],
      "name": "TokenStaked",
      "type": "event"
    },
    {
      "anonymous": false,
      "inputs": [
        {
          "indexed": false,
          "internalType": "address",
          "name": "tokenAddress",
          "type": "address"
        },
        {
          "indexed": false,
          "internalType": "uint256",
          "name": "amount",
          "type": "uint256"
        }
      ],
      "name": "TokenWithdrawn",
      "type": "event"
    },
    {
      "inputs": [
        {
          "internalType": "address",
          "name": "",
          "type": "address"
        },
        {
          "internalType": "address",
          "name": "",
          "type": "address"
        }
      ],
      "name": "_stakingUserBalance",
      "outputs": [
        {
          "internalType": "address",
          "name": "tokenAddress",
          "type": "address"
        },
        {
          "internalType": "uint256",
          "name": "stakedAmount",
          "type": "uint256"
        },
        {
          "internalType": "bool",
          "name": "isUsed",
          "type": "bool"
        },
        {
          "internalType": "uint256",
          "name": "lastTransactionDate",
          "type": "uint256"
        }
      ],
      "stateMutability": "view",
      "type": "function",
      "constant": true
    },
    {
      "inputs": [
        {
          "internalType": "address",
          "name": "userAddress",
          "type": "address"
        },
        {
          "internalType": "address",
          "name": "tokenAddress",
          "type": "address"
        }
      ],
      "name": "computeRewardForToken",
      "outputs": [
        {
          "internalType": "uint256",
          "name": "",
          "type": "uint256"
        }
      ],
      "stateMutability": "nonpayable",
      "type": "function"
    },
    {
      "inputs": [
        {
          "internalType": "address",
          "name": "tokenAddress",
          "type": "address"
        },
        {
          "internalType": "uint256",
          "name": "amount",
          "type": "uint256"
        }
      ],
      "name": "ApproveToken",
      "outputs": [],
      "stateMutability": "nonpayable",
      "type": "function"
    },
    {
      "inputs": [
        {
          "internalType": "address",
          "name": "tokenAddress",
          "type": "address"
        },
        {
          "internalType": "uint256",
          "name": "amount",
          "type": "uint256"
        }
      ],
      "name": "stakeToken",
      "outputs": [
        {
          "internalType": "uint256",
          "name": "",
          "type": "uint256"
        }
      ],
      "stateMutability": "nonpayable",
      "type": "function"
    },
    {
      "inputs": [
        {
          "internalType": "address",
          "name": "userAddress",
          "type": "address"
        },
        {
          "internalType": "address",
          "name": "tokenAddress",
          "type": "address"
        }
      ],
      "name": "getUserBalance",
      "outputs": [
        {
          "internalType": "uint256",
          "name": "",
          "type": "uint256"
        }
      ],
      "stateMutability": "view",
      "type": "function",
      "constant": true
    },
    {
      "inputs": [
        {
          "internalType": "address",
          "name": "userAddress",
          "type": "address"
        },
        {
          "internalType": "address",
          "name": "tokenAddress",
          "type": "address"
        }
      ],
      "name": "getLastTransactionDate",
      "outputs": [
        {
          "internalType": "uint256",
          "name": "",
          "type": "uint256"
        }
      ],
      "stateMutability": "view",
      "type": "function",
      "constant": true
    },
    {
      "inputs": [
        {
          "internalType": "address",
          "name": "tokenAddress",
          "type": "address"
        },
        {
          "internalType": "uint256",
          "name": "amount",
          "type": "uint256"
        }
      ],
      "name": "withdrawTokens",
      "outputs": [],
      "stateMutability": "nonpayable",
      "type": "function"
    },
    {
      "inputs": [],
      "name": "ClaimRewards",
      "outputs": [],
      "stateMutability": "nonpayable",
      "type": "function"
    },
    {
      "inputs": [
        {
          "internalType": "address",
          "name": "userAddress",
          "type": "address"
        }
      ],
      "name": "getTokensRewards",
      "outputs": [
        {
          "internalType": "uint256",
          "name": "",
          "type": "uint256"
        }
      ],
      "stateMutability": "nonpayable",
      "type": "function"
    },
    {
      "inputs": [],
      "name": "getSDOTokenAddress",
      "outputs": [
        {
          "internalType": "address",
          "name": "",
          "type": "address"
        }
      ],
      "stateMutability": "view",
      "type": "function",
      "constant": true
    },
    {
      "inputs": [],
      "name": "getStakedTokens",
      "outputs": [
        {
          "internalType": "address[]",
          "name": "",
          "type": "address[]"
        }
      ],
      "stateMutability": "view",
      "type": "function",
      "constant": true
    },
    {
      "inputs": [
        {
          "internalType": "address",
          "name": "tokenAddress",
          "type": "address"
        }
      ],
      "name": "getTokenPrice",
      "outputs": [
        {
          "internalType": "int256",
          "name": "",
          "type": "int256"
        }
      ],
      "stateMutability": "view",
      "type": "function",
      "constant": true
    }
  ],
  "bytecode": "0x60806040526001600355600a600455306040516200001d9062000107565b62000029919062000168565b604051809103906000f08015801562000046573d6000803e3d6000fd5b50600560006101000a81548173ffffffffffffffffffffffffffffffffffffffff021916908373ffffffffffffffffffffffffffffffffffffffff160217905550604051620000959062000115565b604051809103906000f080158015620000b2573d6000803e3d6000fd5b50600660006101000a81548173ffffffffffffffffffffffffffffffffffffffff021916908373ffffffffffffffffffffffffffffffffffffffff1602179055503480156200010057600080fd5b5062000185565b611b998062001ff583390190565b6103768062003b8e83390190565b600073ffffffffffffffffffffffffffffffffffffffff82169050919050565b6000620001508262000123565b9050919050565b620001628162000143565b82525050565b60006020820190506200017f600083018462000157565b92915050565b611e6080620001956000396000f3fe608060405234801561001057600080fd5b50600436106100d1576000357c0100000000000000000000000000000000000000000000000000000000900480636805d6ad1161008e5780636805d6ad14610187578063a6acb726146101b7578063cdc71466146101e7578063d02641a014610217578063e82e577c14610247578063f739ed9e14610277576100d1565b806306b091f9146100d65780630e469a7c146100f257806312798972146101105780631a21dfb11461011a5780632193471b146101385780634495435514610154575b600080fd5b6100f060048036038101906100eb919061163f565b6102a7565b005b6100fa610676565b604051610107919061173d565b60405180910390f35b610118610741565b005b610122610942565b60405161012f919061176e565b60405180910390f35b610152600480360381019061014d919061163f565b61096c565b005b61016e60048036038101906101699190611789565b610a1a565b60405161017e94939291906117f3565b60405180910390f35b6101a1600480360381019061019c9190611789565b610a84565b6040516101ae9190611838565b60405180910390f35b6101d160048036038101906101cc9190611853565b610b0d565b6040516101de9190611838565b60405180910390f35b61020160048036038101906101fc9190611789565b610b62565b60405161020e9190611838565b60405180910390f35b610231600480360381019061022c9190611853565b610e74565b60405161023e9190611899565b60405180910390f35b610261600480360381019061025c9190611789565b610f4d565b60405161026e9190611838565b60405180910390f35b610291600480360381019061028c919061163f565b610fd6565b60405161029e9190611838565b60405180910390f35b600081116102ea576040517f08c379a00000000000000000000000000000000000000000000000000000000081526004016102e190611911565b60405180910390fd5b60008060003373ffffffffffffffffffffffffffffffffffffffff1673ffffffffffffffffffffffffffffffffffffffff16815260200190815260200160002060008473ffffffffffffffffffffffffffffffffffffffff1673ffffffffffffffffffffffffffffffffffffffff16815260200190815260200160002060010154116103ab576040517f08c379a00000000000000000000000000000000000000000000000000000000081526004016103a2906119a3565b60405180910390fd5b806000803373ffffffffffffffffffffffffffffffffffffffff1673ffffffffffffffffffffffffffffffffffffffff16815260200190815260200160002060008473ffffffffffffffffffffffffffffffffffffffff1673ffffffffffffffffffffffffffffffffffffffff16815260200190815260200160002060010154101561046c576040517f08c379a000000000000000000000000000000000000000000000000000000000815260040161046390611a35565b60405180910390fd5b8173ffffffffffffffffffffffffffffffffffffffff1663a9059cbb33836040518363ffffffff167c01000000000000000000000000000000000000000000000000000000000281526004016104c3929190611a55565b602060405180830381600087803b1580156104dd57600080fd5b505af11580156104f1573d6000803e3d6000fd5b505050506040513d601f19601f820116820180604052508101906105159190611aaa565b50806000803373ffffffffffffffffffffffffffffffffffffffff1673ffffffffffffffffffffffffffffffffffffffff16815260200190815260200160002060008473ffffffffffffffffffffffffffffffffffffffff1673ffffffffffffffffffffffffffffffffffffffff16815260200190815260200160002060010160008282546105a49190611b06565b92505081905550426000803373ffffffffffffffffffffffffffffffffffffffff1673ffffffffffffffffffffffffffffffffffffffff16815260200190815260200160002060008473ffffffffffffffffffffffffffffffffffffffff1673ffffffffffffffffffffffffffffffffffffffff168152602001908152602001600020600301819055507fa2bd9fcfcdba69f52bcd9a520846ad4bd685b187483f53efc42d035b2ddebff0828260405161065f929190611a55565b60405180910390a16106713383610b62565b505050565b6060600160003373ffffffffffffffffffffffffffffffffffffffff1673ffffffffffffffffffffffffffffffffffffffff16815260200190815260200160002080548060200260200160405190810160405280929190818152602001828054801561073757602002820191906000526020600020905b8160009054906101000a900473ffffffffffffffffffffffffffffffffffffffff1673ffffffffffffffffffffffffffffffffffffffff16815260200190600101908083116106ed575b5050505050905090565b61074a33611495565b6000600260003373ffffffffffffffffffffffffffffffffffffffff1673ffffffffffffffffffffffffffffffffffffffff16815260200190815260200160002060000154116107cf576040517f08c379a00000000000000000000000000000000000000000000000000000000081526004016107c690611b86565b60405180910390fd5b6000600260003373ffffffffffffffffffffffffffffffffffffffff1673ffffffffffffffffffffffffffffffffffffffff168152602001908152602001600020600001549050600560009054906101000a900473ffffffffffffffffffffffffffffffffffffffff1673ffffffffffffffffffffffffffffffffffffffff166340c10f1933836040518363ffffffff167c010000000000000000000000000000000000000000000000000000000002815260040161088f929190611a55565b600060405180830381600087803b1580156108a957600080fd5b505af11580156108bd573d6000803e3d6000fd5b5050505080600260003373ffffffffffffffffffffffffffffffffffffffff1673ffffffffffffffffffffffffffffffffffffffff168152602001908152602001600020600101819055507fed6771ea2f01816faa7ccf034b76201581d0b4374e86f83b06a8b4191c6b9f89816040516109379190611838565b60405180910390a150565b6000600560009054906101000a900473ffffffffffffffffffffffffffffffffffffffff16905090565b8173ffffffffffffffffffffffffffffffffffffffff1663095ea7b333836040518363ffffffff167c01000000000000000000000000000000000000000000000000000000000281526004016109c3929190611a55565b602060405180830381600087803b1580156109dd57600080fd5b505af11580156109f1573d6000803e3d6000fd5b505050506040513d601f19601f82011682018060405250810190610a159190611aaa565b505050565b6000602052816000526040600020602052806000526040600020600091509150508060000160009054906101000a900473ffffffffffffffffffffffffffffffffffffffff16908060010154908060020160009054906101000a900460ff16908060030154905084565b60008060008473ffffffffffffffffffffffffffffffffffffffff1673ffffffffffffffffffffffffffffffffffffffff16815260200190815260200160002060008373ffffffffffffffffffffffffffffffffffffffff1673ffffffffffffffffffffffffffffffffffffffff16815260200190815260200160002060010154905092915050565b6000610b1882611495565b600260008373ffffffffffffffffffffffffffffffffffffffff1673ffffffffffffffffffffffffffffffffffffffff168152602001908152602001600020600001549050919050565b600080600090506000808060008773ffffffffffffffffffffffffffffffffffffffff1673ffffffffffffffffffffffffffffffffffffffff16815260200190815260200160002060008673ffffffffffffffffffffffffffffffffffffffff1673ffffffffffffffffffffffffffffffffffffffff1681526020019081526020016000206040518060800160405290816000820160009054906101000a900473ffffffffffffffffffffffffffffffffffffffff1673ffffffffffffffffffffffffffffffffffffffff1673ffffffffffffffffffffffffffffffffffffffff168152602001600182015481526020016002820160009054906101000a900460ff16151515158152602001600382015481525050905062015180816060015142610c8d9190611b06565b1115610e26576018603c80836060015142610ca89190611b06565b610cb29190611bd5565b610cbc9190611bd5565b610cc69190611bd5565b9150816004548260200151610cdb9190611c06565b610ce59190611c06565b92506000600260008873ffffffffffffffffffffffffffffffffffffffff1673ffffffffffffffffffffffffffffffffffffffff1681526020019081526020016000206001015490506000811115610db25760405180604001604052808286610d4e9190611b06565b815260200182815250600260008973ffffffffffffffffffffffffffffffffffffffff1673ffffffffffffffffffffffffffffffffffffffff1681526020019081526020016000206000820151816000015560208201518160010155905050610e24565b6000604051806040016040528086815260200142815250905080600260008a73ffffffffffffffffffffffffffffffffffffffff1673ffffffffffffffffffffffffffffffffffffffff1681526020019081526020016000206000820151816000015560208201518160010155905050505b505b600260008773ffffffffffffffffffffffffffffffffffffffff1673ffffffffffffffffffffffffffffffffffffffff16815260200190815260200160002060000154935050505092915050565b6000600660009054906101000a900473ffffffffffffffffffffffffffffffffffffffff1673ffffffffffffffffffffffffffffffffffffffff166316345f18836040518263ffffffff167c0100000000000000000000000000000000000000000000000000000000028152600401610eed919061176e565b60206040518083038186803b158015610f0557600080fd5b505afa925050508015610f3657506040513d601f19601f82011682018060405250810190610f339190611c8c565b60015b610f435760009050610f48565b809150505b919050565b60008060008473ffffffffffffffffffffffffffffffffffffffff1673ffffffffffffffffffffffffffffffffffffffff16815260200190815260200160002060008373ffffffffffffffffffffffffffffffffffffffff1673ffffffffffffffffffffffffffffffffffffffff16815260200190815260200160002060030154905092915050565b600080821161101a576040517f08c379a000000000000000000000000000000000000000000000000000000000815260040161101190611d05565b60405180910390fd5b8273ffffffffffffffffffffffffffffffffffffffff166323b872dd3330856040518463ffffffff167c010000000000000000000000000000000000000000000000000000000002815260040161107393929190611d25565b602060405180830381600087803b15801561108d57600080fd5b505af11580156110a1573d6000803e3d6000fd5b505050506040513d601f19601f820116820180604052508101906110c59190611aaa565b506000803373ffffffffffffffffffffffffffffffffffffffff1673ffffffffffffffffffffffffffffffffffffffff16815260200190815260200160002060008473ffffffffffffffffffffffffffffffffffffffff1673ffffffffffffffffffffffffffffffffffffffff16815260200190815260200160002060020160009054906101000a900460ff1661133457600160003373ffffffffffffffffffffffffffffffffffffffff1673ffffffffffffffffffffffffffffffffffffffff168152602001908152602001600020839080600181540180825580915050600190039060005260206000200160009091909190916101000a81548173ffffffffffffffffffffffffffffffffffffffff021916908373ffffffffffffffffffffffffffffffffffffffff160217905550600060405180608001604052808573ffffffffffffffffffffffffffffffffffffffff168152602001848152602001600115158152602001428152509050806000803373ffffffffffffffffffffffffffffffffffffffff1673ffffffffffffffffffffffffffffffffffffffff16815260200190815260200160002060008673ffffffffffffffffffffffffffffffffffffffff1673ffffffffffffffffffffffffffffffffffffffff16815260200190815260200160002060008201518160000160006101000a81548173ffffffffffffffffffffffffffffffffffffffff021916908373ffffffffffffffffffffffffffffffffffffffff1602179055506020820151816001015560408201518160020160006101000a81548160ff02191690831515021790555060608201518160030155905050506113ca565b816000803373ffffffffffffffffffffffffffffffffffffffff1673ffffffffffffffffffffffffffffffffffffffff16815260200190815260200160002060008573ffffffffffffffffffffffffffffffffffffffff1673ffffffffffffffffffffffffffffffffffffffff16815260200190815260200160002060010160008282546113c29190611d5c565b925050819055505b6113d43384610b62565b507f1fdab8a8457aaf782e4b6217d6ffa6f5006eda7e50922dd092b2e1524275d7748383604051611406929190611a55565b60405180910390a16000803373ffffffffffffffffffffffffffffffffffffffff1673ffffffffffffffffffffffffffffffffffffffff16815260200190815260200160002060008473ffffffffffffffffffffffffffffffffffffffff1673ffffffffffffffffffffffffffffffffffffffff16815260200190815260200160002060010154905092915050565b6000600160008373ffffffffffffffffffffffffffffffffffffffff1673ffffffffffffffffffffffffffffffffffffffff16815260200190815260200160002080548060200260200160405190810160405280929190818152602001828054801561155657602002820191906000526020600020905b8160009054906101000a900473ffffffffffffffffffffffffffffffffffffffff1673ffffffffffffffffffffffffffffffffffffffff168152602001906001019080831161150c575b5050505050905060005b81518110156115a15761158d838383815181106115805761157f611db2565b5b6020026020010151610b62565b50808061159990611de1565b915050611560565b505050565b600080fd5b600073ffffffffffffffffffffffffffffffffffffffff82169050919050565b60006115d6826115ab565b9050919050565b6115e6816115cb565b81146115f157600080fd5b50565b600081359050611603816115dd565b92915050565b6000819050919050565b61161c81611609565b811461162757600080fd5b50565b60008135905061163981611613565b92915050565b60008060408385031215611656576116556115a6565b5b6000611664858286016115f4565b92505060206116758582860161162a565b9150509250929050565b600081519050919050565b600082825260208201905092915050565b6000819050602082019050919050565b6116b4816115cb565b82525050565b60006116c683836116ab565b60208301905092915050565b6000602082019050919050565b60006116ea8261167f565b6116f4818561168a565b93506116ff8361169b565b8060005b8381101561173057815161171788826116ba565b9750611722836116d2565b925050600181019050611703565b5085935050505092915050565b6000602082019050818103600083015261175781846116df565b905092915050565b611768816115cb565b82525050565b6000602082019050611783600083018461175f565b92915050565b600080604083850312156117a05761179f6115a6565b5b60006117ae858286016115f4565b92505060206117bf858286016115f4565b9150509250929050565b6117d281611609565b82525050565b60008115159050919050565b6117ed816117d8565b82525050565b6000608082019050611808600083018761175f565b61181560208301866117c9565b61182260408301856117e4565b61182f60608301846117c9565b95945050505050565b600060208201905061184d60008301846117c9565b92915050565b600060208284031215611869576118686115a6565b5b6000611877848285016115f4565b91505092915050565b6000819050919050565b61189381611880565b82525050565b60006020820190506118ae600083018461188a565b92915050565b600082825260208201905092915050565b7f596f752063616e6e6f74207769746864726177203020746f6b656e2021000000600082015250565b60006118fb601d836118b4565b9150611906826118c5565b602082019050919050565b6000602082019050818103600083015261192a816118ee565b9050919050565b7f5468697320746f6b656e206e6576657220737461636b6564206f6e207468697360008201527f20636f6e74726163742021000000000000000000000000000000000000000000602082015250565b600061198d602b836118b4565b915061199882611931565b604082019050919050565b600060208201905081810360008301526119bc81611980565b9050919050565b7f43616e6e6f7420776974686472617720616e20616d6f756e742062696767657260008201527f207468616e20737461636b656420210000000000000000000000000000000000602082015250565b6000611a1f602f836118b4565b9150611a2a826119c3565b604082019050919050565b60006020820190508181036000830152611a4e81611a12565b9050919050565b6000604082019050611a6a600083018561175f565b611a7760208301846117c9565b9392505050565b611a87816117d8565b8114611a9257600080fd5b50565b600081519050611aa481611a7e565b92915050565b600060208284031215611ac057611abf6115a6565b5b6000611ace84828501611a95565b91505092915050565b7f4e487b7100000000000000000000000000000000000000000000000000000000600052601160045260246000fd5b6000611b1182611609565b9150611b1c83611609565b925082821015611b2f57611b2e611ad7565b5b828203905092915050565b7f4e6f2052657761726420746f20636c61696d2021000000000000000000000000600082015250565b6000611b706014836118b4565b9150611b7b82611b3a565b602082019050919050565b60006020820190508181036000830152611b9f81611b63565b9050919050565b7f4e487b7100000000000000000000000000000000000000000000000000000000600052601260045260246000fd5b6000611be082611609565b9150611beb83611609565b925082611bfb57611bfa611ba6565b5b828204905092915050565b6000611c1182611609565b9150611c1c83611609565b9250817fffffffffffffffffffffffffffffffffffffffffffffffffffffffffffffffff0483118215151615611c5557611c54611ad7565b5b828202905092915050565b611c6981611880565b8114611c7457600080fd5b50565b600081519050611c8681611c60565b92915050565b600060208284031215611ca257611ca16115a6565b5b6000611cb084828501611c77565b91505092915050565b7f596f752063616e6e6f74207374616b65203020746f6b656e0000000000000000600082015250565b6000611cef6018836118b4565b9150611cfa82611cb9565b602082019050919050565b60006020820190508181036000830152611d1e81611ce2565b9050919050565b6000606082019050611d3a600083018661175f565b611d47602083018561175f565b611d5460408301846117c9565b949350505050565b6000611d6782611609565b9150611d7283611609565b9250827fffffffffffffffffffffffffffffffffffffffffffffffffffffffffffffffff03821115611da757611da6611ad7565b5b828201905092915050565b7f4e487b7100000000000000000000000000000000000000000000000000000000600052603260045260246000fd5b6000611dec82611609565b91507fffffffffffffffffffffffffffffffffffffffffffffffffffffffffffffffff821415611e1f57611e1e611ad7565b5b60018201905091905056fea2646970667358221220f15d82d033775191d32cbeb42ead8a547fc415749dd8f43d9b624ce5c2ea26a264736f6c6343000809003360806040523480156200001157600080fd5b5060405162001b9938038062001b99833981810160405281019062000037919062000239565b6040518060400160405280600881526020017f53444f20436f696e0000000000000000000000000000000000000000000000008152506040518060400160405280600381526020017f53444f00000000000000000000000000000000000000000000000000000000008152508160039080519060200190620000bb9291906200011f565b508060049080519060200190620000d49291906200011f565b50505080600560006101000a81548173ffffffffffffffffffffffffffffffffffffffff021916908373ffffffffffffffffffffffffffffffffffffffff16021790555050620002d0565b8280546200012d906200029a565b90600052602060002090601f0160209004810192826200015157600085556200019d565b82601f106200016c57805160ff19168380011785556200019d565b828001600101855582156200019d579182015b828111156200019c5782518255916020019190600101906200017f565b5b509050620001ac9190620001b0565b5090565b5b80821115620001cb576000816000905550600101620001b1565b5090565b600080fd5b600073ffffffffffffffffffffffffffffffffffffffff82169050919050565b60006200020182620001d4565b9050919050565b6200021381620001f4565b81146200021f57600080fd5b50565b600081519050620002338162000208565b92915050565b600060208284031215620002525762000251620001cf565b5b6000620002628482850162000222565b91505092915050565b7f4e487b7100000000000000000000000000000000000000000000000000000000600052602260045260246000fd5b60006002820490506001821680620002b357607f821691505b60208210811415620002ca57620002c96200026b565b5b50919050565b6118b980620002e06000396000f3fe608060405234801561001057600080fd5b50600436106100d1576000357c01000000000000000000000000000000000000000000000000000000009004806340c10f191161008e57806340c10f19146101c057806370a08231146101dc57806395d89b411461020c578063a457c2d71461022a578063a9059cbb1461025a578063dd62ed3e1461028a576100d1565b806306fdde03146100d6578063095ea7b3146100f457806318160ddd1461012457806323b872dd14610142578063313ce567146101725780633950935114610190575b600080fd5b6100de6102ba565b6040516100eb9190610e9d565b60405180910390f35b61010e60048036038101906101099190610f58565b61034c565b60405161011b9190610fb3565b60405180910390f35b61012c61036a565b6040516101399190610fdd565b60405180910390f35b61015c60048036038101906101579190610ff8565b610374565b6040516101699190610fb3565b60405180910390f35b61017a61046c565b6040516101879190611067565b60405180910390f35b6101aa60048036038101906101a59190610f58565b610471565b6040516101b79190610fb3565b60405180910390f35b6101da60048036038101906101d59190610f58565b61051d565b005b6101f660048036038101906101f19190611082565b6105dc565b6040516102039190610fdd565b60405180910390f35b610214610624565b6040516102219190610e9d565b60405180910390f35b610244600480360381019061023f9190610f58565b6106b6565b6040516102519190610fb3565b60405180910390f35b610274600480360381019061026f9190610f58565b6107a1565b6040516102819190610fb3565b60405180910390f35b6102a4600480360381019061029f91906110af565b6107bf565b6040516102b19190610fdd565b60405180910390f35b6060600380546102c99061111e565b80601f01602080910402602001604051908101604052809291908181526020018280546102f59061111e565b80156103425780601f1061031757610100808354040283529160200191610342565b820191906000526020600020905b81548152906001019060200180831161032557829003601f168201915b5050505050905090565b6000610360610359610846565b848461084e565b6001905092915050565b6000600254905090565b6000610381848484610a19565b6000600160008673ffffffffffffffffffffffffffffffffffffffff1673ffffffffffffffffffffffffffffffffffffffff16815260200190815260200160002060006103cc610846565b73ffffffffffffffffffffffffffffffffffffffff1673ffffffffffffffffffffffffffffffffffffffff1681526020019081526020016000205490508281101561044c576040517f08c379a0000000000000000000000000000000000000000000000000000000008152600401610443906111c2565b60405180910390fd5b61046085610458610846565b85840361084e565b60019150509392505050565b600090565b600061051361047e610846565b84846001600061048c610846565b73ffffffffffffffffffffffffffffffffffffffff1673ffffffffffffffffffffffffffffffffffffffff16815260200190815260200160002060008873ffffffffffffffffffffffffffffffffffffffff1673ffffffffffffffffffffffffffffffffffffffff1681526020019081526020016000205461050e9190611211565b61084e565b6001905092915050565b600560009054906101000a900473ffffffffffffffffffffffffffffffffffffffff1673ffffffffffffffffffffffffffffffffffffffff163373ffffffffffffffffffffffffffffffffffffffff16146105ad576040517f08c379a00000000000000000000000000000000000000000000000000000000081526004016105a4906112b3565b60405180910390fd5b6105d8826105b961046c565b60ff16600a6105c89190611406565b836105d39190611451565b610c9a565b5050565b60008060008373ffffffffffffffffffffffffffffffffffffffff1673ffffffffffffffffffffffffffffffffffffffff168152602001908152602001600020549050919050565b6060600480546106339061111e565b80601f016020809104026020016040519081016040528092919081815260200182805461065f9061111e565b80156106ac5780601f10610681576101008083540402835291602001916106ac565b820191906000526020600020905b81548152906001019060200180831161068f57829003601f168201915b5050505050905090565b600080600160006106c5610846565b73ffffffffffffffffffffffffffffffffffffffff1673ffffffffffffffffffffffffffffffffffffffff16815260200190815260200160002060008573ffffffffffffffffffffffffffffffffffffffff1673ffffffffffffffffffffffffffffffffffffffff16815260200190815260200160002054905082811015610782576040517f08c379a00000000000000000000000000000000000000000000000000000000081526004016107799061151d565b60405180910390fd5b61079661078d610846565b8585840361084e565b600191505092915050565b60006107b56107ae610846565b8484610a19565b6001905092915050565b6000600160008473ffffffffffffffffffffffffffffffffffffffff1673ffffffffffffffffffffffffffffffffffffffff16815260200190815260200160002060008373ffffffffffffffffffffffffffffffffffffffff1673ffffffffffffffffffffffffffffffffffffffff16815260200190815260200160002054905092915050565b600033905090565b600073ffffffffffffffffffffffffffffffffffffffff168373ffffffffffffffffffffffffffffffffffffffff1614156108be576040517f08c379a00000000000000000000000000000000000000000000000000000000081526004016108b5906115af565b60405180910390fd5b600073ffffffffffffffffffffffffffffffffffffffff168273ffffffffffffffffffffffffffffffffffffffff16141561092e576040517f08c379a000000000000000000000000000000000000000000000000000000000815260040161092590611641565b60405180910390fd5b80600160008573ffffffffffffffffffffffffffffffffffffffff1673ffffffffffffffffffffffffffffffffffffffff16815260200190815260200160002060008473ffffffffffffffffffffffffffffffffffffffff1673ffffffffffffffffffffffffffffffffffffffff168152602001908152602001600020819055508173ffffffffffffffffffffffffffffffffffffffff168373ffffffffffffffffffffffffffffffffffffffff167f8c5be1e5ebec7d5bd14f71427d1e84f3dd0314c0f7b2291e5b200ac8c7c3b92583604051610a0c9190610fdd565b60405180910390a3505050565b600073ffffffffffffffffffffffffffffffffffffffff168373ffffffffffffffffffffffffffffffffffffffff161415610a89576040517f08c379a0000000000000000000000000000000000000000000000000000000008152600401610a80906116d3565b60405180910390fd5b600073ffffffffffffffffffffffffffffffffffffffff168273ffffffffffffffffffffffffffffffffffffffff161415610af9576040517f08c379a0000000000000000000000000000000000000000000000000000000008152600401610af090611765565b60405180910390fd5b610b04838383610dfa565b60008060008573ffffffffffffffffffffffffffffffffffffffff1673ffffffffffffffffffffffffffffffffffffffff16815260200190815260200160002054905081811015610b8a576040517f08c379a0000000000000000000000000000000000000000000000000000000008152600401610b81906117f7565b60405180910390fd5b8181036000808673ffffffffffffffffffffffffffffffffffffffff1673ffffffffffffffffffffffffffffffffffffffff16815260200190815260200160002081905550816000808573ffffffffffffffffffffffffffffffffffffffff1673ffffffffffffffffffffffffffffffffffffffff1681526020019081526020016000206000828254610c1d9190611211565b925050819055508273ffffffffffffffffffffffffffffffffffffffff168473ffffffffffffffffffffffffffffffffffffffff167fddf252ad1be2c89b69c2b068fc378daa952ba7f163c4a11628f55a4df523b3ef84604051610c819190610fdd565b60405180910390a3610c94848484610dff565b50505050565b600073ffffffffffffffffffffffffffffffffffffffff168273ffffffffffffffffffffffffffffffffffffffff161415610d0a576040517f08c379a0000000000000000000000000000000000000000000000000000000008152600401610d0190611863565b60405180910390fd5b610d1660008383610dfa565b8060026000828254610d289190611211565b92505081905550806000808473ffffffffffffffffffffffffffffffffffffffff1673ffffffffffffffffffffffffffffffffffffffff1681526020019081526020016000206000828254610d7d9190611211565b925050819055508173ffffffffffffffffffffffffffffffffffffffff16600073ffffffffffffffffffffffffffffffffffffffff167fddf252ad1be2c89b69c2b068fc378daa952ba7f163c4a11628f55a4df523b3ef83604051610de29190610fdd565b60405180910390a3610df660008383610dff565b5050565b505050565b505050565b600081519050919050565b600082825260208201905092915050565b60005b83811015610e3e578082015181840152602081019050610e23565b83811115610e4d576000848401525b50505050565b6000601f19601f8301169050919050565b6000610e6f82610e04565b610e798185610e0f565b9350610e89818560208601610e20565b610e9281610e53565b840191505092915050565b60006020820190508181036000830152610eb78184610e64565b905092915050565b600080fd5b600073ffffffffffffffffffffffffffffffffffffffff82169050919050565b6000610eef82610ec4565b9050919050565b610eff81610ee4565b8114610f0a57600080fd5b50565b600081359050610f1c81610ef6565b92915050565b6000819050919050565b610f3581610f22565b8114610f4057600080fd5b50565b600081359050610f5281610f2c565b92915050565b60008060408385031215610f6f57610f6e610ebf565b5b6000610f7d85828601610f0d565b9250506020610f8e85828601610f43565b9150509250929050565b60008115159050919050565b610fad81610f98565b82525050565b6000602082019050610fc86000830184610fa4565b92915050565b610fd781610f22565b82525050565b6000602082019050610ff26000830184610fce565b92915050565b60008060006060848603121561101157611010610ebf565b5b600061101f86828701610f0d565b935050602061103086828701610f0d565b925050604061104186828701610f43565b9150509250925092565b600060ff82169050919050565b6110618161104b565b82525050565b600060208201905061107c6000830184611058565b92915050565b60006020828403121561109857611097610ebf565b5b60006110a684828501610f0d565b91505092915050565b600080604083850312156110c6576110c5610ebf565b5b60006110d485828601610f0d565b92505060206110e585828601610f0d565b9150509250929050565b7f4e487b7100000000000000000000000000000000000000000000000000000000600052602260045260246000fd5b6000600282049050600182168061113657607f821691505b6020821081141561114a576111496110ef565b5b50919050565b7f45524332303a207472616e7366657220616d6f756e742065786365656473206160008201527f6c6c6f77616e6365000000000000000000000000000000000000000000000000602082015250565b60006111ac602883610e0f565b91506111b782611150565b604082019050919050565b600060208201905081810360008301526111db8161119f565b9050919050565b7f4e487b7100000000000000000000000000000000000000000000000000000000600052601160045260246000fd5b600061121c82610f22565b915061122783610f22565b9250827fffffffffffffffffffffffffffffffffffffffffffffffffffffffffffffffff0382111561125c5761125b6111e2565b5b828201905092915050565b7f6d696e74206e6f7420616c6c6f77656420210000000000000000000000000000600082015250565b600061129d601283610e0f565b91506112a882611267565b602082019050919050565b600060208201905081810360008301526112cc81611290565b9050919050565b6000600282049050919050565b6000808291508390505b600185111561132a57808604811115611306576113056111e2565b5b60018516156113155780820291505b8081029050611323856112d3565b94506112ea565b94509492505050565b60008261134357600190506113ff565b8161135157600090506113ff565b81600181146113675760028114611371576113a0565b60019150506113ff565b60ff841115611383576113826111e2565b5b8360020a91508482111561139a576113996111e2565b5b506113ff565b5060208310610133831016604e8410600b84101617156113d55782820a9050838111156113d0576113cf6111e2565b5b6113ff565b6113e284848460016112e0565b925090508184048111156113f9576113f86111e2565b5b81810290505b9392505050565b600061141182610f22565b915061141c83610f22565b92506114497fffffffffffffffffffffffffffffffffffffffffffffffffffffffffffffffff8484611333565b905092915050565b600061145c82610f22565b915061146783610f22565b9250817fffffffffffffffffffffffffffffffffffffffffffffffffffffffffffffffff04831182151516156114a05761149f6111e2565b5b828202905092915050565b7f45524332303a2064656372656173656420616c6c6f77616e63652062656c6f7760008201527f207a65726f000000000000000000000000000000000000000000000000000000602082015250565b6000611507602583610e0f565b9150611512826114ab565b604082019050919050565b60006020820190508181036000830152611536816114fa565b9050919050565b7f45524332303a20617070726f76652066726f6d20746865207a65726f2061646460008201527f7265737300000000000000000000000000000000000000000000000000000000602082015250565b6000611599602483610e0f565b91506115a48261153d565b604082019050919050565b600060208201905081810360008301526115c88161158c565b9050919050565b7f45524332303a20617070726f766520746f20746865207a65726f20616464726560008201527f7373000000000000000000000000000000000000000000000000000000000000602082015250565b600061162b602283610e0f565b9150611636826115cf565b604082019050919050565b6000602082019050818103600083015261165a8161161e565b9050919050565b7f45524332303a207472616e736665722066726f6d20746865207a65726f20616460008201527f6472657373000000000000000000000000000000000000000000000000000000602082015250565b60006116bd602583610e0f565b91506116c882611661565b604082019050919050565b600060208201905081810360008301526116ec816116b0565b9050919050565b7f45524332303a207472616e7366657220746f20746865207a65726f206164647260008201527f6573730000000000000000000000000000000000000000000000000000000000602082015250565b600061174f602383610e0f565b915061175a826116f3565b604082019050919050565b6000602082019050818103600083015261177e81611742565b9050919050565b7f45524332303a207472616e7366657220616d6f756e742065786365656473206260008201527f616c616e63650000000000000000000000000000000000000000000000000000602082015250565b60006117e1602683610e0f565b91506117ec82611785565b604082019050919050565b60006020820190508181036000830152611810816117d4565b9050919050565b7f45524332303a206d696e7420746f20746865207a65726f206164647265737300600082015250565b600061184d601f83610e0f565b915061185882611817565b602082019050919050565b6000602082019050818103600083015261187c81611840565b905091905056fea26469706673582212207e04dfd62ba5a69dcb676245d4028b28e81aa362e4b2cf3b78937abc83cec93064736f6c63430008090033608060405234801561001057600080fd5b50610356806100206000396000f3fe608060405234801561001057600080fd5b5060043610610048576000357c01000000000000000000000000000000000000000000000000000000009004806316345f181461004d575b600080fd5b610067600480360381019061006291906101a0565b61007d565b60405161007491906101e6565b60405180910390f35b60008082905060008060008060008573ffffffffffffffffffffffffffffffffffffffff1663feaf968c6040518163ffffffff167c010000000000000000000000000000000000000000000000000000000002815260040160a06040518083038186803b1580156100ed57600080fd5b505afa158015610101573d6000803e3d6000fd5b505050506040513d601f19601f8201168201806040525081019061012591906102a5565b94509450945094509450839650505050505050919050565b600080fd5b600073ffffffffffffffffffffffffffffffffffffffff82169050919050565b600061016d82610142565b9050919050565b61017d81610162565b811461018857600080fd5b50565b60008135905061019a81610174565b92915050565b6000602082840312156101b6576101b561013d565b5b60006101c48482850161018b565b91505092915050565b6000819050919050565b6101e0816101cd565b82525050565b60006020820190506101fb60008301846101d7565b92915050565b600069ffffffffffffffffffff82169050919050565b61022081610201565b811461022b57600080fd5b50565b60008151905061023d81610217565b92915050565b61024c816101cd565b811461025757600080fd5b50565b60008151905061026981610243565b92915050565b6000819050919050565b6102828161026f565b811461028d57600080fd5b50565b60008151905061029f81610279565b92915050565b600080600080600060a086880312156102c1576102c061013d565b5b60006102cf8882890161022e565b95505060206102e08882890161025a565b94505060406102f188828901610290565b935050606061030288828901610290565b92505060806103138882890161022e565b915050929550929590935056fea26469706673582212202e26c7d2e6c73787202d81bdd92243cad505428472ccde0b2f49f5ff1fa62b1464736f6c63430008090033",
  "immutableReferences": {},
  "source": "// SPDX-License-Identifier: MIT\r\npragma solidity ^0.8.0;\r\n\r\nimport \"@openzeppelin/contracts/token/ERC20/ERC20.sol\";\r\nimport \"@openzeppelin/contracts/token/ERC20/IERC20.sol\";\r\nimport \"./PriceConsumerV3.sol\";\r\nimport \"./SDOToken.sol\";\r\n\r\n// User cannot withdraw it's token before 1 year\r\n// Rewards are percent (rateReward) of amount stacked\r\n// Rewards are calculated if last staking is more than 1 day\r\ncontract AlyraStaking {\r\n    \r\n    // ========= Entities =========\r\n\r\n    struct Token {\r\n        address tokenAddress;\r\n        uint256 stakedAmount;\r\n        bool isUsed;\r\n        uint256 lastTransactionDate;    \r\n    }\r\n\r\n    struct RewardInfo {\r\n        uint amount;\r\n        uint lastAmountClaimed;\r\n    }\r\n\r\n    // ========= constants =========\r\n\r\n    // seconds in a day\r\n    uint256 constant DAY = 60 * 60 * 24;\r\n\r\n    // ========= Variables =========\r\n\r\n    \r\n    mapping(address => mapping(address => Token)) public _stakingUserBalance;//relation between user and adress-token and amount\r\n    mapping(address => address[]) _userToTokenAddress; //define a relation between a user and its token\r\n    mapping(address => RewardInfo) _rewardAmount;\r\n\r\n    //Rewards variables\r\n    uint256 daysBeforewithdrawAllowed = 1; //cannot withdraw before 1 day\r\n    uint256 rateReward = 10; //reward is 10% of stacked amount\r\n    SDOToken private _SDOInstance = new SDOToken(address(this));//the reward token\r\n\r\n    //Oracle init\r\n    PriceConsumerV3 private priceConsumerV3 = new PriceConsumerV3();\r\n\r\n    // ========= Constructor =========\r\n    constructor() {\r\n        \r\n    }\r\n\r\n    // ========= Events =========\r\n    event TokenStaked(address tokenAddress, uint256 amount);\r\n    event TokenWithdrawn(address tokenAddress, uint256 amount);\r\n    event RewardsClaimed(uint256 amount);\r\n\r\n    // =============================== Functions ===============================\r\n\r\n      /// @notice Compute reward for user\r\n    function computeReward(address userAddress) private {\r\n\r\n        //get all token staked by user\r\n        address[] memory userTokenAddresses = _userToTokenAddress[userAddress];\r\n        \r\n        //loop on each user token to compute rewards\r\n        for(uint i = 0; i<userTokenAddresses.length;i++){\r\n            computeRewardForToken(userAddress, userTokenAddresses[i]);\r\n        }\r\n    }\r\n\r\n    /// @notice Compute reward for specific token and store it on main reward mapping\r\n    /// @param userAddress user Address\r\n    /// @param tokenAddress token address\r\n    function computeRewardForToken(address userAddress, address tokenAddress)\r\n        public\r\n        returns (uint256)\r\n    {\r\n        uint256 reward = 0;\r\n        uint256 daysCount = 0;\r\n        Token memory currentToken = _stakingUserBalance[userAddress][tokenAddress];\r\n\r\n        if (block.timestamp - currentToken.lastTransactionDate > DAY) {\r\n            daysCount =  (block.timestamp - currentToken.lastTransactionDate) /60/60/24;\r\n            reward = (currentToken.stakedAmount * rateReward) * daysCount; // cannnot store decimal, so ui need divide by 100 the result !\r\n            \r\n            //check if user already claimed\r\n            uint amountAlreadyClaimed = _rewardAmount[userAddress].lastAmountClaimed;\r\n\r\n            if(amountAlreadyClaimed>0){\r\n                _rewardAmount[userAddress] = RewardInfo(reward-amountAlreadyClaimed,amountAlreadyClaimed);}\r\n                else{\r\n\r\n                    RewardInfo memory RewInf = RewardInfo(reward,block.timestamp) ; \r\n                    _rewardAmount[userAddress] = RewInf;\r\n                }\r\n        }\r\n\r\n\r\n        return _rewardAmount[userAddress].amount;    \r\n    }\r\n\r\n     /// @notice Approve a specific ERC20 token for msg.sender\r\n    function ApproveToken(address tokenAddress, uint256 amount) public {\r\n        ERC20(tokenAddress).approve((msg.sender), amount);\r\n    }\r\n\r\n    /// @notice Stake an amount of a specific ERC20 token\r\n    /// @param tokenAddress address of the staked token\r\n    /// @param amount staked amount\r\n    function stakeToken(address tokenAddress, uint256 amount)\r\n        public\r\n        returns (uint256)\r\n    {\r\n        require(amount > 0, \"You cannot stake 0 token\");\r\n\r\n        //Transfer amount to smartcontract\r\n        IERC20(tokenAddress).transferFrom(msg.sender, address(this), amount);\r\n\r\n        //Add token if not exist on Smart Contract\r\n        if (!_stakingUserBalance[msg.sender][tokenAddress].isUsed) {\r\n            //Add\r\n            _userToTokenAddress[msg.sender].push(tokenAddress);\r\n\r\n            Token memory userToken = Token(\r\n                tokenAddress,\r\n                amount,\r\n                true,\r\n                block.timestamp\r\n            );\r\n            _stakingUserBalance[msg.sender][tokenAddress] = userToken;\r\n        } else {\r\n            //Update\r\n            _stakingUserBalance[msg.sender][tokenAddress]\r\n                .stakedAmount += amount;\r\n        }\r\n\r\n        //compute reward\r\n        computeRewardForToken(msg.sender, tokenAddress);\r\n\r\n        //fire event\r\n        emit TokenStaked(tokenAddress, amount);\r\n\r\n        return _stakingUserBalance[msg.sender][tokenAddress].stakedAmount;\r\n    }\r\n\r\n    /// @notice Get uer balance for specific ERC20Token\r\n    /// @param userAddress address of the user\r\n    /// @param tokenAddress address of the staked token\r\n    function getUserBalance(address userAddress, address tokenAddress)\r\n        public\r\n        view\r\n        returns (uint256)\r\n    {\r\n        return _stakingUserBalance[userAddress][tokenAddress].stakedAmount;\r\n    }\r\n\r\n    /// @notice  Get last stacking date  for specific ERC20Token\r\n    /// @param userAddress address of the user\r\n    /// @param tokenAddress address of the staked token\r\n    function getLastTransactionDate(address userAddress, address tokenAddress)\r\n        public\r\n        view\r\n        returns (uint256)\r\n    {\r\n        return\r\n            _stakingUserBalance[userAddress][tokenAddress].lastTransactionDate;\r\n    }\r\n\r\n    /// @notice Withdraw an amount of a specific token\r\n    /// @param tokenAddress address of the staked token\r\n    /// @param amount amount to withdraw\r\n    function withdrawTokens(address tokenAddress, uint256 amount) public {\r\n        require(amount > 0, \"You cannot withdraw 0 token !\");\r\n        require(\r\n            _stakingUserBalance[msg.sender][tokenAddress].stakedAmount > 0,\r\n            \"This token never stacked on this contract !\"\r\n        );\r\n        require(\r\n            _stakingUserBalance[msg.sender][tokenAddress].stakedAmount >=\r\n                amount,\r\n            \"Cannot withdraw an amount bigger than stacked !\"\r\n        );\r\n\r\n        IERC20(tokenAddress).transfer(msg.sender, amount);\r\n\r\n        _stakingUserBalance[msg.sender][tokenAddress].stakedAmount -= amount;\r\n        _stakingUserBalance[msg.sender][tokenAddress]\r\n            .lastTransactionDate = block.timestamp;\r\n\r\n        //fire event\r\n        emit TokenWithdrawn(tokenAddress, amount);\r\n\r\n        //compute reward\r\n        computeRewardForToken(msg.sender, tokenAddress);\r\n    }\r\n\r\n    /// @notice transfert rewards\r\n    function ClaimRewards() public {\r\n        \r\n        //compute if rewrds available now\r\n        computeReward(msg.sender);\r\n        require(_rewardAmount[msg.sender].amount>0 ,\"No Reward to claim !\");\r\n        \r\n        uint amountToClaim = _rewardAmount[msg.sender].amount;\r\n       \r\n       // MINT      \r\n       _SDOInstance.mint(msg.sender,amountToClaim);\r\n\r\n       //update\r\n       _rewardAmount[msg.sender].lastAmountClaimed = amountToClaim;\r\n\r\n        emit RewardsClaimed(amountToClaim);\r\n    }\r\n\r\n    // ********************* Functions for DAPP *********************\r\n\r\n    /// @notice return the total stake reward price\r\n    /// @return an uint\r\n    function getTokensRewards(address userAddress)\r\n        public\r\n        //view\r\n        returns (uint256)\r\n    { \r\n        computeReward(userAddress);\r\n        return _rewardAmount[userAddress].amount;\r\n    }\r\n\r\n    /// @notice Return address of RewardToken\r\n    function getSDOTokenAddress() public view returns (address) {\r\n        return address(_SDOInstance);\r\n    }\r\n\r\n    /// @notice Return list of user's tokens staked on contract\r\n    function getStakedTokens() public view returns (address[] memory) {\r\n        return _userToTokenAddress[msg.sender];\r\n    }\r\n\r\n    /// @notice return the corresponding Rinkeby chainlink price for a token\r\n    /// @dev note: for test purpose it also returns 10 for AT1 and 20 for AT2 tokens\r\n    /// @param tokenAddress address of the staked token\r\n    /// @return an uint\r\n    function getTokenPrice(address tokenAddress) public view returns (int256) {\r\n        try priceConsumerV3.getLatestPrice(tokenAddress) returns (\r\n            int256 price\r\n        ) {\r\n            return price;\r\n        } catch {\r\n            return 0;\r\n        }\r\n    }\r\n}\r\n",
  "sourcePath": "I:\\Developpement\\GIT\\GitHub\\Alyra\\AlyraStacking\\contracts\\AlyraStaking.sol",
  "compiler": {
    "name": "solc",
    "version": "0.8.9+commit.e5eed63a.Emscripten.clang"
  },
  "schemaVersion": "3.4.3",
  "updatedAt": "2022-01-27T15:11:55.259Z",
  "networkType": "ethereum",
  "devdoc": {
    "kind": "dev",
    "methods": {
      "computeRewardForToken(address,address)": {
        "params": {
          "tokenAddress": "token address",
          "userAddress": "user Address"
        }
      },
      "getLastTransactionDate(address,address)": {
        "params": {
          "tokenAddress": "address of the staked token",
          "userAddress": "address of the user"
        }
      },
      "getTokenPrice(address)": {
        "details": "note: for test purpose it also returns 10 for AT1 and 20 for AT2 tokens",
        "params": {
          "tokenAddress": "address of the staked token"
        },
        "returns": {
          "_0": "an uint"
        }
      },
      "getTokensRewards(address)": {
        "returns": {
          "_0": "an uint"
        }
      },
      "getUserBalance(address,address)": {
        "params": {
          "tokenAddress": "address of the staked token",
          "userAddress": "address of the user"
        }
      },
      "stakeToken(address,uint256)": {
        "params": {
          "amount": "staked amount",
          "tokenAddress": "address of the staked token"
        }
      },
      "withdrawTokens(address,uint256)": {
        "params": {
          "amount": "amount to withdraw",
          "tokenAddress": "address of the staked token"
        }
      }
    },
    "version": 1
  },
  "userdoc": {
    "kind": "user",
    "methods": {
      "ApproveToken(address,uint256)": {
        "notice": "Approve a specific ERC20 token for msg.sender"
      },
      "ClaimRewards()": {
        "notice": "transfert rewards"
      },
      "computeRewardForToken(address,address)": {
        "notice": "Compute reward for specific token and store it on main reward mapping"
      },
      "getLastTransactionDate(address,address)": {
        "notice": "Get last stacking date  for specific ERC20Token"
      },
      "getSDOTokenAddress()": {
        "notice": "Return address of RewardToken"
      },
      "getStakedTokens()": {
        "notice": "Return list of user's tokens staked on contract"
      },
      "getTokenPrice(address)": {
        "notice": "return the corresponding Rinkeby chainlink price for a token"
      },
      "getTokensRewards(address)": {
        "notice": "return the total stake reward price"
      },
      "getUserBalance(address,address)": {
        "notice": "Get uer balance for specific ERC20Token"
      },
      "stakeToken(address,uint256)": {
        "notice": "Stake an amount of a specific ERC20 token"
      },
      "withdrawTokens(address,uint256)": {
        "notice": "Withdraw an amount of a specific token"
      }
    },
    "version": 1
  }
}