{
  "contractName": "AlyraStaking",
  "abi": [
    {
      "inputs": [
        {
          "internalType": "address",
          "name": "sdoAddress",
          "type": "address"
        }
      ],
      "stateMutability": "nonpayable",
      "type": "constructor"
    },
    {
      "anonymous": false,
      "inputs": [
        {
          "indexed": false,
          "internalType": "address",
          "name": "tokenAddress",
          "type": "address"
        },
        {
          "indexed": false,
          "internalType": "uint256",
          "name": "amount",
          "type": "uint256"
        }
      ],
      "name": "TokenStaked",
      "type": "event"
    },
    {
      "anonymous": false,
      "inputs": [
        {
          "indexed": false,
          "internalType": "address",
          "name": "tokenAddress",
          "type": "address"
        },
        {
          "indexed": false,
          "internalType": "uint256",
          "name": "amount",
          "type": "uint256"
        }
      ],
      "name": "TokenWithdraw",
      "type": "event"
    },
    {
      "inputs": [
        {
          "internalType": "address",
          "name": "",
          "type": "address"
        },
        {
          "internalType": "address",
          "name": "",
          "type": "address"
        }
      ],
      "name": "_stakingUserBalance",
      "outputs": [
        {
          "internalType": "address",
          "name": "tokenAddress",
          "type": "address"
        },
        {
          "internalType": "uint256",
          "name": "stakedAmount",
          "type": "uint256"
        },
        {
          "internalType": "bool",
          "name": "isUsed",
          "type": "bool"
        },
        {
          "internalType": "uint256",
          "name": "lastTransactionDate",
          "type": "uint256"
        }
      ],
      "stateMutability": "view",
      "type": "function",
      "constant": true
    },
    {
      "inputs": [
        {
          "internalType": "address",
          "name": "tokenAddress",
          "type": "address"
        },
        {
          "internalType": "uint256",
          "name": "amount",
          "type": "uint256"
        }
      ],
      "name": "stakeToken",
      "outputs": [
        {
          "internalType": "uint256",
          "name": "",
          "type": "uint256"
        }
      ],
      "stateMutability": "nonpayable",
      "type": "function"
    },
    {
      "inputs": [
        {
          "internalType": "address",
          "name": "userAddress",
          "type": "address"
        },
        {
          "internalType": "address",
          "name": "tokenAddress",
          "type": "address"
        }
      ],
      "name": "getUserBalance",
      "outputs": [
        {
          "internalType": "uint256",
          "name": "",
          "type": "uint256"
        }
      ],
      "stateMutability": "view",
      "type": "function",
      "constant": true
    },
    {
      "inputs": [],
      "name": "getSDOTokenAddress",
      "outputs": [
        {
          "internalType": "address",
          "name": "",
          "type": "address"
        }
      ],
      "stateMutability": "view",
      "type": "function",
      "constant": true
    },
    {
      "inputs": [],
      "name": "getStakedTokens",
      "outputs": [
        {
          "internalType": "address[]",
          "name": "",
          "type": "address[]"
        }
      ],
      "stateMutability": "view",
      "type": "function",
      "constant": true
    }
  ],
  "bytecode": "0x60806040526040516200001290620000ea565b604051809103906000f0801580156200002f573d6000803e3d6000fd5b50600360006101000a81548173ffffffffffffffffffffffffffffffffffffffff021916908373ffffffffffffffffffffffffffffffffffffffff1602179055503480156200007d57600080fd5b50604051620011a0380380620011a08339818101604052810190620000a3919062000162565b806000806101000a81548173ffffffffffffffffffffffffffffffffffffffff021916908373ffffffffffffffffffffffffffffffffffffffff1602179055505062000194565b6103768062000e2a83390190565b600080fd5b600073ffffffffffffffffffffffffffffffffffffffff82169050919050565b60006200012a82620000fd565b9050919050565b6200013c816200011d565b81146200014857600080fd5b50565b6000815190506200015c8162000131565b92915050565b6000602082840312156200017b576200017a620000f8565b5b60006200018b848285016200014b565b91505092915050565b610c8680620001a46000396000f3fe608060405234801561001057600080fd5b5060043610610074576000357c0100000000000000000000000000000000000000000000000000000000900480630e469a7c146100795780631a21dfb11461009757806344954355146100b55780636805d6ad146100e8578063f739ed9e14610118575b600080fd5b610081610148565b60405161008e91906108d8565b60405180910390f35b61009f610213565b6040516100ac9190610909565b60405180910390f35b6100cf60048036038101906100ca9190610955565b61023c565b6040516100df94939291906109c9565b60405180910390f35b61010260048036038101906100fd9190610955565b6102a6565b60405161010f9190610a0e565b60405180910390f35b610132600480360381019061012d9190610a55565b610330565b60405161013f9190610a0e565b60405180910390f35b6060600260003373ffffffffffffffffffffffffffffffffffffffff1673ffffffffffffffffffffffffffffffffffffffff16815260200190815260200160002080548060200260200160405190810160405280929190818152602001828054801561020957602002820191906000526020600020905b8160009054906101000a900473ffffffffffffffffffffffffffffffffffffffff1673ffffffffffffffffffffffffffffffffffffffff16815260200190600101908083116101bf575b5050505050905090565b60008060009054906101000a900473ffffffffffffffffffffffffffffffffffffffff16905090565b6001602052816000526040600020602052806000526040600020600091509150508060000160009054906101000a900473ffffffffffffffffffffffffffffffffffffffff16908060010154908060020160009054906101000a900460ff16908060030154905084565b6000600160008473ffffffffffffffffffffffffffffffffffffffff1673ffffffffffffffffffffffffffffffffffffffff16815260200190815260200160002060008373ffffffffffffffffffffffffffffffffffffffff1673ffffffffffffffffffffffffffffffffffffffff16815260200190815260200160002060010154905092915050565b6000808211610374576040517f08c379a000000000000000000000000000000000000000000000000000000000815260040161036b90610af2565b60405180910390fd5b8273ffffffffffffffffffffffffffffffffffffffff166323b872dd3330856040518463ffffffff167c01000000000000000000000000000000000000000000000000000000000281526004016103cd93929190610b12565b602060405180830381600087803b1580156103e757600080fd5b505af11580156103fb573d6000803e3d6000fd5b505050506040513d601f19601f8201168201806040525081019061041f9190610b75565b50600160003373ffffffffffffffffffffffffffffffffffffffff1673ffffffffffffffffffffffffffffffffffffffff16815260200190815260200160002060008473ffffffffffffffffffffffffffffffffffffffff1673ffffffffffffffffffffffffffffffffffffffff16815260200190815260200160002060020160009054906101000a900460ff1661069057600260003373ffffffffffffffffffffffffffffffffffffffff1673ffffffffffffffffffffffffffffffffffffffff168152602001908152602001600020839080600181540180825580915050600190039060005260206000200160009091909190916101000a81548173ffffffffffffffffffffffffffffffffffffffff021916908373ffffffffffffffffffffffffffffffffffffffff160217905550600060405180608001604052808573ffffffffffffffffffffffffffffffffffffffff16815260200184815260200160011515815260200142815250905080600160003373ffffffffffffffffffffffffffffffffffffffff1673ffffffffffffffffffffffffffffffffffffffff16815260200190815260200160002060008673ffffffffffffffffffffffffffffffffffffffff1673ffffffffffffffffffffffffffffffffffffffff16815260200190815260200160002060008201518160000160006101000a81548173ffffffffffffffffffffffffffffffffffffffff021916908373ffffffffffffffffffffffffffffffffffffffff1602179055506020820151816001015560408201518160020160006101000a81548160ff0219169083151502179055506060820151816003015590505050610727565b81600160003373ffffffffffffffffffffffffffffffffffffffff1673ffffffffffffffffffffffffffffffffffffffff16815260200190815260200160002060008573ffffffffffffffffffffffffffffffffffffffff1673ffffffffffffffffffffffffffffffffffffffff168152602001908152602001600020600101600082825461071f9190610bd1565b925050819055505b7f1fdab8a8457aaf782e4b6217d6ffa6f5006eda7e50922dd092b2e1524275d7748383604051610758929190610c27565b60405180910390a1600160003373ffffffffffffffffffffffffffffffffffffffff1673ffffffffffffffffffffffffffffffffffffffff16815260200190815260200160002060008473ffffffffffffffffffffffffffffffffffffffff1673ffffffffffffffffffffffffffffffffffffffff16815260200190815260200160002060010154905092915050565b600081519050919050565b600082825260208201905092915050565b6000819050602082019050919050565b600073ffffffffffffffffffffffffffffffffffffffff82169050919050565b600061083f82610814565b9050919050565b61084f81610834565b82525050565b60006108618383610846565b60208301905092915050565b6000602082019050919050565b6000610885826107e8565b61088f81856107f3565b935061089a83610804565b8060005b838110156108cb5781516108b28882610855565b97506108bd8361086d565b92505060018101905061089e565b5085935050505092915050565b600060208201905081810360008301526108f2818461087a565b905092915050565b61090381610834565b82525050565b600060208201905061091e60008301846108fa565b92915050565b600080fd5b61093281610834565b811461093d57600080fd5b50565b60008135905061094f81610929565b92915050565b6000806040838503121561096c5761096b610924565b5b600061097a85828601610940565b925050602061098b85828601610940565b9150509250929050565b6000819050919050565b6109a881610995565b82525050565b60008115159050919050565b6109c3816109ae565b82525050565b60006080820190506109de60008301876108fa565b6109eb602083018661099f565b6109f860408301856109ba565b610a05606083018461099f565b95945050505050565b6000602082019050610a23600083018461099f565b92915050565b610a3281610995565b8114610a3d57600080fd5b50565b600081359050610a4f81610a29565b92915050565b60008060408385031215610a6c57610a6b610924565b5b6000610a7a85828601610940565b9250506020610a8b85828601610a40565b9150509250929050565b600082825260208201905092915050565b7f596f752063616e6e6f74207374616b65203020746f6b656e0000000000000000600082015250565b6000610adc601883610a95565b9150610ae782610aa6565b602082019050919050565b60006020820190508181036000830152610b0b81610acf565b9050919050565b6000606082019050610b2760008301866108fa565b610b3460208301856108fa565b610b41604083018461099f565b949350505050565b610b52816109ae565b8114610b5d57600080fd5b50565b600081519050610b6f81610b49565b92915050565b600060208284031215610b8b57610b8a610924565b5b6000610b9984828501610b60565b91505092915050565b7f4e487b7100000000000000000000000000000000000000000000000000000000600052601160045260246000fd5b6000610bdc82610995565b9150610be783610995565b9250827fffffffffffffffffffffffffffffffffffffffffffffffffffffffffffffffff03821115610c1c57610c1b610ba2565b5b828201905092915050565b6000604082019050610c3c60008301856108fa565b610c49602083018461099f565b939250505056fea2646970667358221220185de90b6c6a945cce73ce023d14cb2d847ffafb2bd5d6f203ccfbd17cf5f1a964736f6c63430008090033608060405234801561001057600080fd5b50610356806100206000396000f3fe608060405234801561001057600080fd5b5060043610610048576000357c01000000000000000000000000000000000000000000000000000000009004806316345f181461004d575b600080fd5b610067600480360381019061006291906101a0565b61007d565b60405161007491906101e6565b60405180910390f35b60008082905060008060008060008573ffffffffffffffffffffffffffffffffffffffff1663feaf968c6040518163ffffffff167c010000000000000000000000000000000000000000000000000000000002815260040160a06040518083038186803b1580156100ed57600080fd5b505afa158015610101573d6000803e3d6000fd5b505050506040513d601f19601f8201168201806040525081019061012591906102a5565b94509450945094509450839650505050505050919050565b600080fd5b600073ffffffffffffffffffffffffffffffffffffffff82169050919050565b600061016d82610142565b9050919050565b61017d81610162565b811461018857600080fd5b50565b60008135905061019a81610174565b92915050565b6000602082840312156101b6576101b561013d565b5b60006101c48482850161018b565b91505092915050565b6000819050919050565b6101e0816101cd565b82525050565b60006020820190506101fb60008301846101d7565b92915050565b600069ffffffffffffffffffff82169050919050565b61022081610201565b811461022b57600080fd5b50565b60008151905061023d81610217565b92915050565b61024c816101cd565b811461025757600080fd5b50565b60008151905061026981610243565b92915050565b6000819050919050565b6102828161026f565b811461028d57600080fd5b50565b60008151905061029f81610279565b92915050565b600080600080600060a086880312156102c1576102c061013d565b5b60006102cf8882890161022e565b95505060206102e08882890161025a565b94505060406102f188828901610290565b935050606061030288828901610290565b92505060806103138882890161022e565b915050929550929590935056fea26469706673582212202e26c7d2e6c73787202d81bdd92243cad505428472ccde0b2f49f5ff1fa62b1464736f6c63430008090033",
  "immutableReferences": {},
  "source": "// SPDX-License-Identifier: MIT\r\npragma solidity ^0.8.0;\r\n\r\nimport \"@openzeppelin/contracts/token/ERC20/ERC20.sol\";\r\nimport \"@openzeppelin/contracts/token/ERC20/IERC20.sol\";\r\nimport \"./PriceConsumerV3.sol\";\r\n\r\ncontract AlyraStaking {\r\n    IERC20 SdoToken; // the reward token\r\n\r\n    // ========= Entities =========\r\n\r\n    struct Token {\r\n        address tokenAddress;\r\n        uint256 stakedAmount;\r\n        bool isUsed;\r\n        uint256 lastTransactionDate;\r\n    }\r\n\r\n    // ========= Variables =========\r\n\r\n    //_stakingUserBalance between adress token and amount\r\n    mapping(address => mapping(address => Token)) public _stakingUserBalance;\r\n    mapping(address => address[]) _userToTokenAddress;\r\n\r\n    //Oracle init\r\n    PriceConsumerV3 private priceConsumerV3 = new PriceConsumerV3();\r\n\r\n    // ========= Constructor =========\r\n    constructor(address sdoAddress) {\r\n        SdoToken = IERC20(sdoAddress);\r\n    }\r\n\r\n    // ========= Events =========\r\n    event TokenStaked(address tokenAddress, uint256 amount);\r\n    event TokenWithdraw(address tokenAddress, uint256 amount);\r\n\r\n    // =============================== Functions ===============================\r\n\r\n    /// @notice Stake an amount of a specific ERC20 token\r\n    /// @param tokenAddress address of the staked token\r\n    /// @param amount staked amount\r\n    function stakeToken(address tokenAddress, uint256 amount)\r\n        public\r\n        returns (uint256)\r\n    {\r\n        require(amount > 0, \"You cannot stake 0 token\");\r\n\r\n        //Transfer amount to smartcontract\r\n        IERC20(tokenAddress).transferFrom(msg.sender, address(this), amount);\r\n\r\n        //Add token if not exist on Smart Contract\r\n        if (!_stakingUserBalance[msg.sender][tokenAddress].isUsed) {\r\n            //Add\r\n            _userToTokenAddress[msg.sender].push(tokenAddress);\r\n\r\n            Token memory userToken = Token(\r\n                tokenAddress,\r\n                amount,\r\n                true,\r\n                block.timestamp\r\n            );\r\n            _stakingUserBalance[msg.sender][tokenAddress] = userToken;\r\n        } else {\r\n            //Update\r\n            _stakingUserBalance[msg.sender][tokenAddress]\r\n                .stakedAmount += amount;\r\n        }\r\n\r\n        // TODO : compute reward\r\n\r\n        //fire event\r\n        emit TokenStaked(tokenAddress, amount);\r\n\r\n        return _stakingUserBalance[msg.sender][tokenAddress].stakedAmount;\r\n    }\r\n\r\n    /// @notice Stake an amount of a specific ERC20 token\r\n    /// @param userAddress address of the user\r\n    /// @param tokenAddress address of the staked token\r\n    function getUserBalance(address userAddress, address tokenAddress)\r\n        public\r\n        view\r\n        returns (uint256)\r\n    {\r\n        return _stakingUserBalance[userAddress][tokenAddress].stakedAmount;\r\n    }\r\n\r\n    // ********************* Functions for DAPP *********************\r\n\r\n    /// @notice Return address of RewardToken\r\n    function getSDOTokenAddress() public view returns (address) {\r\n        return address(SdoToken);\r\n    }\r\n\r\n    /// @notice Return list of user's tokens staked on contract\r\n    function getStakedTokens() public view returns (address[] memory) {\r\n        return _userToTokenAddress[msg.sender];\r\n    }\r\n}\r\n",
  "sourcePath": "I:\\Developpement\\GIT\\GitHub\\Alyra\\AlyraStacking\\contracts\\AlyraStaking.sol",
  "compiler": {
    "name": "solc",
    "version": "0.8.9+commit.e5eed63a.Emscripten.clang"
  },
  "schemaVersion": "3.4.3",
  "updatedAt": "2022-01-17T14:16:16.445Z",
  "networkType": "ethereum",
  "devdoc": {
    "kind": "dev",
    "methods": {
      "getUserBalance(address,address)": {
        "params": {
          "tokenAddress": "address of the staked token",
          "userAddress": "address of the user"
        }
      },
      "stakeToken(address,uint256)": {
        "params": {
          "amount": "staked amount",
          "tokenAddress": "address of the staked token"
        }
      }
    },
    "version": 1
  },
  "userdoc": {
    "kind": "user",
    "methods": {
      "getSDOTokenAddress()": {
        "notice": "Return address of RewardToken"
      },
      "getStakedTokens()": {
        "notice": "Return list of user's tokens staked on contract"
      },
      "getUserBalance(address,address)": {
        "notice": "Stake an amount of a specific ERC20 token"
      },
      "stakeToken(address,uint256)": {
        "notice": "Stake an amount of a specific ERC20 token"
      }
    },
    "version": 1
  }
}