{
  "contractName": "AlyraDaiStaking",
  "abi": [
    {
      "inputs": [
        {
          "internalType": "address",
          "name": "sdoAddress",
          "type": "address"
        }
      ],
      "stateMutability": "nonpayable",
      "type": "constructor"
    },
    {
      "anonymous": false,
      "inputs": [
        {
          "indexed": false,
          "internalType": "address",
          "name": "tokenAddress",
          "type": "address"
        },
        {
          "indexed": false,
          "internalType": "uint256",
          "name": "amount",
          "type": "uint256"
        }
      ],
      "name": "TokenStaked",
      "type": "event"
    },
    {
      "anonymous": false,
      "inputs": [
        {
          "indexed": false,
          "internalType": "address",
          "name": "tokenAddress",
          "type": "address"
        },
        {
          "indexed": false,
          "internalType": "uint256",
          "name": "amount",
          "type": "uint256"
        }
      ],
      "name": "TokenWithdraw",
      "type": "event"
    },
    {
      "inputs": [
        {
          "internalType": "address",
          "name": "",
          "type": "address"
        }
      ],
      "name": "stakingSMBalance",
      "outputs": [
        {
          "internalType": "address",
          "name": "tokenAddress",
          "type": "address"
        },
        {
          "internalType": "uint256",
          "name": "stakedAmount",
          "type": "uint256"
        },
        {
          "internalType": "bool",
          "name": "isUsed",
          "type": "bool"
        }
      ],
      "stateMutability": "view",
      "type": "function",
      "constant": true
    },
    {
      "inputs": [
        {
          "internalType": "address",
          "name": "",
          "type": "address"
        },
        {
          "internalType": "address",
          "name": "",
          "type": "address"
        }
      ],
      "name": "stakingUserBalance",
      "outputs": [
        {
          "internalType": "uint256",
          "name": "",
          "type": "uint256"
        }
      ],
      "stateMutability": "view",
      "type": "function",
      "constant": true
    },
    {
      "inputs": [
        {
          "internalType": "address",
          "name": "tokenAddress",
          "type": "address"
        },
        {
          "internalType": "uint256",
          "name": "amount",
          "type": "uint256"
        }
      ],
      "name": "stakeToken",
      "outputs": [],
      "stateMutability": "nonpayable",
      "type": "function"
    },
    {
      "inputs": [
        {
          "internalType": "address",
          "name": "tokenAddress",
          "type": "address"
        },
        {
          "internalType": "uint256",
          "name": "amount",
          "type": "uint256"
        }
      ],
      "name": "withdrawToken",
      "outputs": [],
      "stateMutability": "nonpayable",
      "type": "function"
    },
    {
      "inputs": [],
      "name": "getSDOTokenAddress",
      "outputs": [
        {
          "internalType": "address",
          "name": "",
          "type": "address"
        }
      ],
      "stateMutability": "view",
      "type": "function",
      "constant": true
    },
    {
      "inputs": [
        {
          "internalType": "address",
          "name": "tokenAddress",
          "type": "address"
        },
        {
          "internalType": "address",
          "name": "owner",
          "type": "address"
        }
      ],
      "name": "getStackedToken",
      "outputs": [
        {
          "internalType": "uint256",
          "name": "",
          "type": "uint256"
        }
      ],
      "stateMutability": "view",
      "type": "function",
      "constant": true
    }
  ],
  "bytecode": "0x60806040526040516200001290620000ea565b604051809103906000f0801580156200002f573d6000803e3d6000fd5b50600360006101000a81548173ffffffffffffffffffffffffffffffffffffffff021916908373ffffffffffffffffffffffffffffffffffffffff1602179055503480156200007d57600080fd5b50604051620015d2380380620015d28339818101604052810190620000a3919062000162565b806000806101000a81548173ffffffffffffffffffffffffffffffffffffffff021916908373ffffffffffffffffffffffffffffffffffffffff1602179055505062000194565b610376806200125c83390190565b600080fd5b600073ffffffffffffffffffffffffffffffffffffffff82169050919050565b60006200012a82620000fd565b9050919050565b6200013c816200011d565b81146200014857600080fd5b50565b6000815190506200015c8162000131565b92915050565b6000602082840312156200017b576200017a620000f8565b5b60006200018b848285016200014b565b91505092915050565b6110b880620001a46000396000f3fe608060405234801561001057600080fd5b506004361061007f576000357c0100000000000000000000000000000000000000000000000000000000900480631a21dfb1146100845780631ada63ec146100a25780639e281a98146100d4578063bca4a2ee146100f0578063bf2347f514610120578063f739ed9e14610150575b600080fd5b61008c61016c565b6040516100999190610b38565b60405180910390f35b6100bc60048036038101906100b79190610b84565b610195565b6040516100cb93929190610be5565b60405180910390f35b6100ee60048036038101906100e99190610c48565b6101ec565b005b61010a60048036038101906101059190610c88565b6105df565b6040516101179190610cc8565b60405180910390f35b61013a60048036038101906101359190610c88565b610604565b6040516101479190610cc8565b60405180910390f35b61016a60048036038101906101659190610c48565b61068b565b005b60008060009054906101000a900473ffffffffffffffffffffffffffffffffffffffff16905090565b60016020528060005260406000206000915090508060000160009054906101000a900473ffffffffffffffffffffffffffffffffffffffff16908060010154908060020160009054906101000a900460ff16905083565b6000811161022f576040517f08c379a000000000000000000000000000000000000000000000000000000000815260040161022690610d40565b60405180910390fd5b600160008373ffffffffffffffffffffffffffffffffffffffff1673ffffffffffffffffffffffffffffffffffffffff16815260200190815260200160002060020160009054906101000a900460ff166102be576040517f08c379a00000000000000000000000000000000000000000000000000000000081526004016102b590610dac565b60405180910390fd5b600081600160008573ffffffffffffffffffffffffffffffffffffffff1673ffffffffffffffffffffffffffffffffffffffff1681526020019081526020016000206001015461030e9190610dfb565b1161034e576040517f08c379a000000000000000000000000000000000000000000000000000000000815260040161034590610e7b565b60405180910390fd5b80600260003373ffffffffffffffffffffffffffffffffffffffff1673ffffffffffffffffffffffffffffffffffffffff16815260200190815260200160002060008473ffffffffffffffffffffffffffffffffffffffff1673ffffffffffffffffffffffffffffffffffffffff168152602001908152602001600020541161040c576040517f08c379a000000000000000000000000000000000000000000000000000000000815260040161040390610ee7565b60405180910390fd5b8173ffffffffffffffffffffffffffffffffffffffff1663a9059cbb33836040518363ffffffff167c0100000000000000000000000000000000000000000000000000000000028152600401610463929190610f07565b602060405180830381600087803b15801561047d57600080fd5b505af1158015610491573d6000803e3d6000fd5b505050506040513d601f19601f820116820180604052508101906104b59190610f5c565b5080600160008473ffffffffffffffffffffffffffffffffffffffff1673ffffffffffffffffffffffffffffffffffffffff16815260200190815260200160002060010160008282546105089190610dfb565b9250508190555080600260003373ffffffffffffffffffffffffffffffffffffffff1673ffffffffffffffffffffffffffffffffffffffff16815260200190815260200160002060008473ffffffffffffffffffffffffffffffffffffffff1673ffffffffffffffffffffffffffffffffffffffff168152602001908152602001600020600082825461059b9190610dfb565b925050819055507f1fdab8a8457aaf782e4b6217d6ffa6f5006eda7e50922dd092b2e1524275d77482826040516105d3929190610f07565b60405180910390a15050565b6002602052816000526040600020602052806000526040600020600091509150505481565b6000600260008373ffffffffffffffffffffffffffffffffffffffff1673ffffffffffffffffffffffffffffffffffffffff16815260200190815260200160002060008473ffffffffffffffffffffffffffffffffffffffff1673ffffffffffffffffffffffffffffffffffffffff16815260200190815260200160002054905092915050565b600081116106ce576040517f08c379a00000000000000000000000000000000000000000000000000000000081526004016106c590610fd5565b60405180910390fd5b8173ffffffffffffffffffffffffffffffffffffffff166323b872dd3330846040518463ffffffff167c010000000000000000000000000000000000000000000000000000000002815260040161072793929190610ff5565b602060405180830381600087803b15801561074157600080fd5b505af1158015610755573d6000803e3d6000fd5b505050506040513d601f19601f820116820180604052508101906107799190610f5c565b50600160008373ffffffffffffffffffffffffffffffffffffffff1673ffffffffffffffffffffffffffffffffffffffff16815260200190815260200160002060020160009054906101000a900460ff161561082d5780600160008473ffffffffffffffffffffffffffffffffffffffff1673ffffffffffffffffffffffffffffffffffffffff1681526020019081526020016000206001016000828254610821919061102c565b9250508190555061091b565b600060405180606001604052808473ffffffffffffffffffffffffffffffffffffffff16815260200183815260200160011515815250905080600160008573ffffffffffffffffffffffffffffffffffffffff1673ffffffffffffffffffffffffffffffffffffffff16815260200190815260200160002060008201518160000160006101000a81548173ffffffffffffffffffffffffffffffffffffffff021916908373ffffffffffffffffffffffffffffffffffffffff1602179055506020820151816001015560408201518160020160006101000a81548160ff021916908315150217905550905050505b6000600260003373ffffffffffffffffffffffffffffffffffffffff1673ffffffffffffffffffffffffffffffffffffffff16815260200190815260200160002060008473ffffffffffffffffffffffffffffffffffffffff1673ffffffffffffffffffffffffffffffffffffffff168152602001908152602001600020541115610a385780600260003373ffffffffffffffffffffffffffffffffffffffff1673ffffffffffffffffffffffffffffffffffffffff16815260200190815260200160002060008473ffffffffffffffffffffffffffffffffffffffff1673ffffffffffffffffffffffffffffffffffffffff1681526020019081526020016000206000828254610a2c919061102c565b92505081905550610aba565b80600260003373ffffffffffffffffffffffffffffffffffffffff1673ffffffffffffffffffffffffffffffffffffffff16815260200190815260200160002060008473ffffffffffffffffffffffffffffffffffffffff1673ffffffffffffffffffffffffffffffffffffffff168152602001908152602001600020819055505b7f1fdab8a8457aaf782e4b6217d6ffa6f5006eda7e50922dd092b2e1524275d7748282604051610aeb929190610f07565b60405180910390a15050565b600073ffffffffffffffffffffffffffffffffffffffff82169050919050565b6000610b2282610af7565b9050919050565b610b3281610b17565b82525050565b6000602082019050610b4d6000830184610b29565b92915050565b600080fd5b610b6181610b17565b8114610b6c57600080fd5b50565b600081359050610b7e81610b58565b92915050565b600060208284031215610b9a57610b99610b53565b5b6000610ba884828501610b6f565b91505092915050565b6000819050919050565b610bc481610bb1565b82525050565b60008115159050919050565b610bdf81610bca565b82525050565b6000606082019050610bfa6000830186610b29565b610c076020830185610bbb565b610c146040830184610bd6565b949350505050565b610c2581610bb1565b8114610c3057600080fd5b50565b600081359050610c4281610c1c565b92915050565b60008060408385031215610c5f57610c5e610b53565b5b6000610c6d85828601610b6f565b9250506020610c7e85828601610c33565b9150509250929050565b60008060408385031215610c9f57610c9e610b53565b5b6000610cad85828601610b6f565b9250506020610cbe85828601610b6f565b9150509250929050565b6000602082019050610cdd6000830184610bbb565b92915050565b600082825260208201905092915050565b7f596f752063616e6e6f74207769746864726177203020746f6b656e0000000000600082015250565b6000610d2a601b83610ce3565b9150610d3582610cf4565b602082019050919050565b60006020820190508181036000830152610d5981610d1d565b9050919050565b7f546f6b656e206e6f7420616c6c6f776564000000000000000000000000000000600082015250565b6000610d96601183610ce3565b9150610da182610d60565b602082019050919050565b60006020820190508181036000830152610dc581610d89565b9050919050565b7f4e487b7100000000000000000000000000000000000000000000000000000000600052601160045260246000fd5b6000610e0682610bb1565b9150610e1183610bb1565b925082821015610e2457610e23610dcc565b5b828203905092915050565b7f4e6f7420656e6f7567682066756e647320696e20534d00000000000000000000600082015250565b6000610e65601683610ce3565b9150610e7082610e2f565b602082019050919050565b60006020820190508181036000830152610e9481610e58565b9050919050565b7f6e6f7420656e6f7567682066756e647300000000000000000000000000000000600082015250565b6000610ed1601083610ce3565b9150610edc82610e9b565b602082019050919050565b60006020820190508181036000830152610f0081610ec4565b9050919050565b6000604082019050610f1c6000830185610b29565b610f296020830184610bbb565b9392505050565b610f3981610bca565b8114610f4457600080fd5b50565b600081519050610f5681610f30565b92915050565b600060208284031215610f7257610f71610b53565b5b6000610f8084828501610f47565b91505092915050565b7f596f752063616e6e6f74207374616b65203020746f6b656e0000000000000000600082015250565b6000610fbf601883610ce3565b9150610fca82610f89565b602082019050919050565b60006020820190508181036000830152610fee81610fb2565b9050919050565b600060608201905061100a6000830186610b29565b6110176020830185610b29565b6110246040830184610bbb565b949350505050565b600061103782610bb1565b915061104283610bb1565b9250827fffffffffffffffffffffffffffffffffffffffffffffffffffffffffffffffff0382111561107757611076610dcc565b5b82820190509291505056fea2646970667358221220d0a4b9afccbc6142d9d31f6f33c3a9040b2842cbc0dda233671ab17503628fd464736f6c63430008090033608060405234801561001057600080fd5b50610356806100206000396000f3fe608060405234801561001057600080fd5b5060043610610048576000357c01000000000000000000000000000000000000000000000000000000009004806316345f181461004d575b600080fd5b610067600480360381019061006291906101a0565b61007d565b60405161007491906101e6565b60405180910390f35b60008082905060008060008060008573ffffffffffffffffffffffffffffffffffffffff1663feaf968c6040518163ffffffff167c010000000000000000000000000000000000000000000000000000000002815260040160a06040518083038186803b1580156100ed57600080fd5b505afa158015610101573d6000803e3d6000fd5b505050506040513d601f19601f8201168201806040525081019061012591906102a5565b94509450945094509450839650505050505050919050565b600080fd5b600073ffffffffffffffffffffffffffffffffffffffff82169050919050565b600061016d82610142565b9050919050565b61017d81610162565b811461018857600080fd5b50565b60008135905061019a81610174565b92915050565b6000602082840312156101b6576101b561013d565b5b60006101c48482850161018b565b91505092915050565b6000819050919050565b6101e0816101cd565b82525050565b60006020820190506101fb60008301846101d7565b92915050565b600069ffffffffffffffffffff82169050919050565b61022081610201565b811461022b57600080fd5b50565b60008151905061023d81610217565b92915050565b61024c816101cd565b811461025757600080fd5b50565b60008151905061026981610243565b92915050565b6000819050919050565b6102828161026f565b811461028d57600080fd5b50565b60008151905061029f81610279565b92915050565b600080600080600060a086880312156102c1576102c061013d565b5b60006102cf8882890161022e565b95505060206102e08882890161025a565b94505060406102f188828901610290565b935050606061030288828901610290565b92505060806103138882890161022e565b915050929550929590935056fea26469706673582212202e26c7d2e6c73787202d81bdd92243cad505428472ccde0b2f49f5ff1fa62b1464736f6c63430008090033",
  "immutableReferences": {},
  "source": "// SPDX-License-Identifier: MIT\r\npragma solidity ^0.8.0;\r\n\r\nimport \"@openzeppelin/contracts/token/ERC20/ERC20.sol\";\r\nimport \"@openzeppelin/contracts/token/ERC20/IERC20.sol\";\r\nimport \"./PriceConsumerV3.sol\";\r\n\r\ncontract AlyraDaiStaking {\r\n    IERC20 SdoToken;\r\n\r\n    // ========= Entities =========\r\n\r\n    struct Token {\r\n        address tokenAddress;\r\n        uint256 stakedAmount;\r\n        bool isUsed;\r\n    }\r\n\r\n    // ========= Variables =========\r\n\r\n    //stakingSMBalance between adress token and amount\r\n    mapping(address => Token) public stakingSMBalance;\r\n\r\n    //stakingUserBalance between adress token and amount\r\n    mapping(address => mapping(address => uint256)) public stakingUserBalance;\r\n\r\n    //Oracle init\r\n    PriceConsumerV3 private priceConsumerV3 = new PriceConsumerV3();\r\n\r\n    // ========= Constructor =========\r\n    constructor(address sdoAddress) {\r\n        SdoToken = IERC20(sdoAddress);\r\n    }\r\n\r\n    // ========= Events =========\r\n    event TokenStaked(address tokenAddress, uint256 amount);\r\n    event TokenWithdraw(address tokenAddress, uint256 amount);\r\n\r\n    // =============================== Functions ===============================\r\n\r\n    /// @notice Stake an amount of a specific ERC20 token\r\n    /// @param tokenAddress address of the staked token\r\n    /// @param amount staked amount\r\n    function stakeToken(address tokenAddress, uint256 amount) public {\r\n        require(amount > 0, \"You cannot stake 0 token\");\r\n\r\n        //Transfer amount to smartcontract\r\n        IERC20(tokenAddress).transferFrom(msg.sender, address(this), amount);\r\n\r\n        //update SM balance\r\n        if (stakingSMBalance[tokenAddress].isUsed) {\r\n            stakingSMBalance[tokenAddress].stakedAmount += amount;\r\n        } else {\r\n            Token memory tokstaked = Token(tokenAddress, amount, true);\r\n            stakingSMBalance[tokenAddress] = tokstaked;\r\n        }\r\n\r\n        // Update user balance for this token address\r\n        if (stakingUserBalance[msg.sender][tokenAddress] > 0) {\r\n            stakingUserBalance[msg.sender][tokenAddress] += amount;\r\n        } else {\r\n            stakingUserBalance[msg.sender][tokenAddress] = amount;\r\n        }\r\n\r\n        //fire event\r\n        emit TokenStaked(tokenAddress, amount);\r\n    }\r\n\r\n    /// @notice Withdraw an amount of a specific ERC20 token\r\n    /// @param tokenAddress address of the staked token\r\n    /// @param amount amount to be withdrawn\r\n    function withdrawToken(address tokenAddress, uint256 amount) public {\r\n        require(amount > 0, \"You cannot withdraw 0 token\");\r\n        require(stakingSMBalance[tokenAddress].isUsed, \"Token not allowed\");\r\n        require(\r\n            stakingSMBalance[tokenAddress].stakedAmount - amount > 0,\r\n            \"Not enough funds in SM\"\r\n        );\r\n        require(\r\n            stakingUserBalance[msg.sender][tokenAddress] > amount,\r\n            \"not enough funds\"\r\n        );\r\n\r\n        // transfer amount back to stakeholder\r\n        IERC20(tokenAddress).transfer(msg.sender, amount);\r\n\r\n        // update SM balance\r\n        stakingSMBalance[tokenAddress].stakedAmount -= amount;\r\n\r\n        //update user balance\r\n        stakingUserBalance[msg.sender][tokenAddress] -= amount;\r\n\r\n        //fire event\r\n        emit TokenStaked(tokenAddress, amount);\r\n    }\r\n\r\n    // ********************* Functions for DAPP *********************\r\n\r\n    function getSDOTokenAddress() public view returns (address) {\r\n        return address(SdoToken);\r\n    }\r\n\r\n    function getStackedToken(address tokenAddress, address owner)\r\n        public\r\n        view\r\n        returns (uint256)\r\n    {\r\n        return stakingUserBalance[owner][tokenAddress];\r\n    }\r\n}\r\n",
  "sourcePath": "I:\\Developpement\\GIT\\GitHub\\Alyra\\AlyraStacking\\contracts\\AlyraDaiStaking.sol",
  "compiler": {
    "name": "solc",
    "version": "0.8.9+commit.e5eed63a.Emscripten.clang"
  },
  "schemaVersion": "3.4.3",
  "updatedAt": "2022-01-12T14:22:58.617Z",
  "networkType": "ethereum",
  "devdoc": {
    "kind": "dev",
    "methods": {
      "stakeToken(address,uint256)": {
        "params": {
          "amount": "staked amount",
          "tokenAddress": "address of the staked token"
        }
      },
      "withdrawToken(address,uint256)": {
        "params": {
          "amount": "amount to be withdrawn",
          "tokenAddress": "address of the staked token"
        }
      }
    },
    "version": 1
  },
  "userdoc": {
    "kind": "user",
    "methods": {
      "stakeToken(address,uint256)": {
        "notice": "Stake an amount of a specific ERC20 token"
      },
      "withdrawToken(address,uint256)": {
        "notice": "Withdraw an amount of a specific ERC20 token"
      }
    },
    "version": 1
  }
}