{
  "contractName": "AlyraStaking",
  "abi": [
    {
      "inputs": [
        {
          "internalType": "address",
          "name": "sdoAddress",
          "type": "address"
        }
      ],
      "stateMutability": "nonpayable",
      "type": "constructor"
    },
    {
      "anonymous": false,
      "inputs": [
        {
          "indexed": false,
          "internalType": "address",
          "name": "tokenAddress",
          "type": "address"
        },
        {
          "indexed": false,
          "internalType": "uint256",
          "name": "amount",
          "type": "uint256"
        }
      ],
      "name": "TokenStaked",
      "type": "event"
    },
    {
      "anonymous": false,
      "inputs": [
        {
          "indexed": false,
          "internalType": "address",
          "name": "tokenAddress",
          "type": "address"
        },
        {
          "indexed": false,
          "internalType": "uint256",
          "name": "amount",
          "type": "uint256"
        }
      ],
      "name": "TokenWithdrawn",
      "type": "event"
    },
    {
      "inputs": [
        {
          "internalType": "address",
          "name": "",
          "type": "address"
        },
        {
          "internalType": "address",
          "name": "",
          "type": "address"
        }
      ],
      "name": "_stakingUserBalance",
      "outputs": [
        {
          "internalType": "address",
          "name": "tokenAddress",
          "type": "address"
        },
        {
          "internalType": "uint256",
          "name": "stakedAmount",
          "type": "uint256"
        },
        {
          "internalType": "bool",
          "name": "isUsed",
          "type": "bool"
        },
        {
          "internalType": "uint256",
          "name": "lastTransactionDate",
          "type": "uint256"
        }
      ],
      "stateMutability": "view",
      "type": "function"
    },
    {
      "inputs": [
        {
          "internalType": "address",
          "name": "tokenAddress",
          "type": "address"
        },
        {
          "internalType": "uint256",
          "name": "amount",
          "type": "uint256"
        }
      ],
      "name": "stakeToken",
      "outputs": [
        {
          "internalType": "uint256",
          "name": "",
          "type": "uint256"
        }
      ],
      "stateMutability": "nonpayable",
      "type": "function"
    },
    {
      "inputs": [
        {
          "internalType": "address",
          "name": "userAddress",
          "type": "address"
        },
        {
          "internalType": "address",
          "name": "tokenAddress",
          "type": "address"
        }
      ],
      "name": "getUserBalance",
      "outputs": [
        {
          "internalType": "uint256",
          "name": "",
          "type": "uint256"
        }
      ],
      "stateMutability": "view",
      "type": "function"
    },
    {
      "inputs": [
        {
          "internalType": "address",
          "name": "tokenAddress",
          "type": "address"
        },
        {
          "internalType": "uint256",
          "name": "amount",
          "type": "uint256"
        }
      ],
      "name": "withdrawTokens",
      "outputs": [],
      "stateMutability": "nonpayable",
      "type": "function"
    },
    {
      "inputs": [],
      "name": "getSDOTokenAddress",
      "outputs": [
        {
          "internalType": "address",
          "name": "",
          "type": "address"
        }
      ],
      "stateMutability": "view",
      "type": "function"
    },
    {
      "inputs": [],
      "name": "getStakedTokens",
      "outputs": [
        {
          "internalType": "address[]",
          "name": "",
          "type": "address[]"
        }
      ],
      "stateMutability": "view",
      "type": "function"
    }
  ],
  "bytecode": "0x60806040526040516200001290620000ea565b604051809103906000f0801580156200002f573d6000803e3d6000fd5b50600360006101000a81548173ffffffffffffffffffffffffffffffffffffffff021916908373ffffffffffffffffffffffffffffffffffffffff1602179055503480156200007d57600080fd5b5060405162001753380380620017538339818101604052810190620000a3919062000162565b806000806101000a81548173ffffffffffffffffffffffffffffffffffffffff021916908373ffffffffffffffffffffffffffffffffffffffff1602179055505062000194565b61037680620013dd83390190565b600080fd5b600073ffffffffffffffffffffffffffffffffffffffff82169050919050565b60006200012a82620000fd565b9050919050565b6200013c816200011d565b81146200014857600080fd5b50565b6000815190506200015c8162000131565b92915050565b6000602082840312156200017b576200017a620000f8565b5b60006200018b848285016200014b565b91505092915050565b61123980620001a46000396000f3fe608060405234801561001057600080fd5b506004361061007f576000357c01000000000000000000000000000000000000000000000000000000009004806306b091f9146100845780630e469a7c146100a05780631a21dfb1146100be57806344954355146100dc5780636805d6ad1461010f578063f739ed9e1461013f575b600080fd5b61009e60048036038101906100999190610c70565b61016f565b005b6100a8610537565b6040516100b59190610d6e565b60405180910390f35b6100c6610602565b6040516100d39190610d9f565b60405180910390f35b6100f660048036038101906100f19190610dba565b61062b565b6040516101069493929190610e24565b60405180910390f35b61012960048036038101906101249190610dba565b610695565b6040516101369190610e69565b60405180910390f35b61015960048036038101906101549190610c70565b61071f565b6040516101669190610e69565b60405180910390f35b600081116101b2576040517f08c379a00000000000000000000000000000000000000000000000000000000081526004016101a990610ee1565b60405180910390fd5b6000600160003373ffffffffffffffffffffffffffffffffffffffff1673ffffffffffffffffffffffffffffffffffffffff16815260200190815260200160002060008473ffffffffffffffffffffffffffffffffffffffff1673ffffffffffffffffffffffffffffffffffffffff1681526020019081526020016000206001015411610274576040517f08c379a000000000000000000000000000000000000000000000000000000000815260040161026b90610f73565b60405180910390fd5b80600160003373ffffffffffffffffffffffffffffffffffffffff1673ffffffffffffffffffffffffffffffffffffffff16815260200190815260200160002060008473ffffffffffffffffffffffffffffffffffffffff1673ffffffffffffffffffffffffffffffffffffffff168152602001908152602001600020600101541015610336576040517f08c379a000000000000000000000000000000000000000000000000000000000815260040161032d90611005565b60405180910390fd5b8173ffffffffffffffffffffffffffffffffffffffff1663a9059cbb33836040518363ffffffff167c010000000000000000000000000000000000000000000000000000000002815260040161038d929190611025565b602060405180830381600087803b1580156103a757600080fd5b505af11580156103bb573d6000803e3d6000fd5b505050506040513d601f19601f820116820180604052508101906103df919061107a565b5080600160003373ffffffffffffffffffffffffffffffffffffffff1673ffffffffffffffffffffffffffffffffffffffff16815260200190815260200160002060008473ffffffffffffffffffffffffffffffffffffffff1673ffffffffffffffffffffffffffffffffffffffff168152602001908152602001600020600101600082825461046f91906110d6565b9250508190555042600160003373ffffffffffffffffffffffffffffffffffffffff1673ffffffffffffffffffffffffffffffffffffffff16815260200190815260200160002060008473ffffffffffffffffffffffffffffffffffffffff1673ffffffffffffffffffffffffffffffffffffffff168152602001908152602001600020600301819055507fa2bd9fcfcdba69f52bcd9a520846ad4bd685b187483f53efc42d035b2ddebff0828260405161052b929190611025565b60405180910390a15050565b6060600260003373ffffffffffffffffffffffffffffffffffffffff1673ffffffffffffffffffffffffffffffffffffffff1681526020019081526020016000208054806020026020016040519081016040528092919081815260200182805480156105f857602002820191906000526020600020905b8160009054906101000a900473ffffffffffffffffffffffffffffffffffffffff1673ffffffffffffffffffffffffffffffffffffffff16815260200190600101908083116105ae575b5050505050905090565b60008060009054906101000a900473ffffffffffffffffffffffffffffffffffffffff16905090565b6001602052816000526040600020602052806000526040600020600091509150508060000160009054906101000a900473ffffffffffffffffffffffffffffffffffffffff16908060010154908060020160009054906101000a900460ff16908060030154905084565b6000600160008473ffffffffffffffffffffffffffffffffffffffff1673ffffffffffffffffffffffffffffffffffffffff16815260200190815260200160002060008373ffffffffffffffffffffffffffffffffffffffff1673ffffffffffffffffffffffffffffffffffffffff16815260200190815260200160002060010154905092915050565b6000808211610763576040517f08c379a000000000000000000000000000000000000000000000000000000000815260040161075a90611156565b60405180910390fd5b8273ffffffffffffffffffffffffffffffffffffffff166323b872dd3330856040518463ffffffff167c01000000000000000000000000000000000000000000000000000000000281526004016107bc93929190611176565b602060405180830381600087803b1580156107d657600080fd5b505af11580156107ea573d6000803e3d6000fd5b505050506040513d601f19601f8201168201806040525081019061080e919061107a565b50600160003373ffffffffffffffffffffffffffffffffffffffff1673ffffffffffffffffffffffffffffffffffffffff16815260200190815260200160002060008473ffffffffffffffffffffffffffffffffffffffff1673ffffffffffffffffffffffffffffffffffffffff16815260200190815260200160002060020160009054906101000a900460ff16610a7f57600260003373ffffffffffffffffffffffffffffffffffffffff1673ffffffffffffffffffffffffffffffffffffffff168152602001908152602001600020839080600181540180825580915050600190039060005260206000200160009091909190916101000a81548173ffffffffffffffffffffffffffffffffffffffff021916908373ffffffffffffffffffffffffffffffffffffffff160217905550600060405180608001604052808573ffffffffffffffffffffffffffffffffffffffff16815260200184815260200160011515815260200142815250905080600160003373ffffffffffffffffffffffffffffffffffffffff1673ffffffffffffffffffffffffffffffffffffffff16815260200190815260200160002060008673ffffffffffffffffffffffffffffffffffffffff1673ffffffffffffffffffffffffffffffffffffffff16815260200190815260200160002060008201518160000160006101000a81548173ffffffffffffffffffffffffffffffffffffffff021916908373ffffffffffffffffffffffffffffffffffffffff1602179055506020820151816001015560408201518160020160006101000a81548160ff0219169083151502179055506060820151816003015590505050610b16565b81600160003373ffffffffffffffffffffffffffffffffffffffff1673ffffffffffffffffffffffffffffffffffffffff16815260200190815260200160002060008573ffffffffffffffffffffffffffffffffffffffff1673ffffffffffffffffffffffffffffffffffffffff1681526020019081526020016000206001016000828254610b0e91906111ad565b925050819055505b7f1fdab8a8457aaf782e4b6217d6ffa6f5006eda7e50922dd092b2e1524275d7748383604051610b47929190611025565b60405180910390a1600160003373ffffffffffffffffffffffffffffffffffffffff1673ffffffffffffffffffffffffffffffffffffffff16815260200190815260200160002060008473ffffffffffffffffffffffffffffffffffffffff1673ffffffffffffffffffffffffffffffffffffffff16815260200190815260200160002060010154905092915050565b600080fd5b600073ffffffffffffffffffffffffffffffffffffffff82169050919050565b6000610c0782610bdc565b9050919050565b610c1781610bfc565b8114610c2257600080fd5b50565b600081359050610c3481610c0e565b92915050565b6000819050919050565b610c4d81610c3a565b8114610c5857600080fd5b50565b600081359050610c6a81610c44565b92915050565b60008060408385031215610c8757610c86610bd7565b5b6000610c9585828601610c25565b9250506020610ca685828601610c5b565b9150509250929050565b600081519050919050565b600082825260208201905092915050565b6000819050602082019050919050565b610ce581610bfc565b82525050565b6000610cf78383610cdc565b60208301905092915050565b6000602082019050919050565b6000610d1b82610cb0565b610d258185610cbb565b9350610d3083610ccc565b8060005b83811015610d61578151610d488882610ceb565b9750610d5383610d03565b925050600181019050610d34565b5085935050505092915050565b60006020820190508181036000830152610d888184610d10565b905092915050565b610d9981610bfc565b82525050565b6000602082019050610db46000830184610d90565b92915050565b60008060408385031215610dd157610dd0610bd7565b5b6000610ddf85828601610c25565b9250506020610df085828601610c25565b9150509250929050565b610e0381610c3a565b82525050565b60008115159050919050565b610e1e81610e09565b82525050565b6000608082019050610e396000830187610d90565b610e466020830186610dfa565b610e536040830185610e15565b610e606060830184610dfa565b95945050505050565b6000602082019050610e7e6000830184610dfa565b92915050565b600082825260208201905092915050565b7f596f752063616e6e6f74207769746864726177203020746f6b656e2021000000600082015250565b6000610ecb601d83610e84565b9150610ed682610e95565b602082019050919050565b60006020820190508181036000830152610efa81610ebe565b9050919050565b7f5468697320746f6b656e206e6576657220737461636b6564206f6e207468697360008201527f20636f6e74726163742021000000000000000000000000000000000000000000602082015250565b6000610f5d602b83610e84565b9150610f6882610f01565b604082019050919050565b60006020820190508181036000830152610f8c81610f50565b9050919050565b7f43616e6e6f7420776974686472617720616e20616d6f756e742062696767657260008201527f207468616e20737461636b656420210000000000000000000000000000000000602082015250565b6000610fef602f83610e84565b9150610ffa82610f93565b604082019050919050565b6000602082019050818103600083015261101e81610fe2565b9050919050565b600060408201905061103a6000830185610d90565b6110476020830184610dfa565b9392505050565b61105781610e09565b811461106257600080fd5b50565b6000815190506110748161104e565b92915050565b6000602082840312156110905761108f610bd7565b5b600061109e84828501611065565b91505092915050565b7f4e487b7100000000000000000000000000000000000000000000000000000000600052601160045260246000fd5b60006110e182610c3a565b91506110ec83610c3a565b9250828210156110ff576110fe6110a7565b5b828203905092915050565b7f596f752063616e6e6f74207374616b65203020746f6b656e0000000000000000600082015250565b6000611140601883610e84565b915061114b8261110a565b602082019050919050565b6000602082019050818103600083015261116f81611133565b9050919050565b600060608201905061118b6000830186610d90565b6111986020830185610d90565b6111a56040830184610dfa565b949350505050565b60006111b882610c3a565b91506111c383610c3a565b9250827fffffffffffffffffffffffffffffffffffffffffffffffffffffffffffffffff038211156111f8576111f76110a7565b5b82820190509291505056fea26469706673582212203bb1e53d01c13564cf1e713d6ae4835a0ec72d4e56df434a96f6412cfa9780a164736f6c63430008090033608060405234801561001057600080fd5b50610356806100206000396000f3fe608060405234801561001057600080fd5b5060043610610048576000357c01000000000000000000000000000000000000000000000000000000009004806316345f181461004d575b600080fd5b610067600480360381019061006291906101a0565b61007d565b60405161007491906101e6565b60405180910390f35b60008082905060008060008060008573ffffffffffffffffffffffffffffffffffffffff1663feaf968c6040518163ffffffff167c010000000000000000000000000000000000000000000000000000000002815260040160a06040518083038186803b1580156100ed57600080fd5b505afa158015610101573d6000803e3d6000fd5b505050506040513d601f19601f8201168201806040525081019061012591906102a5565b94509450945094509450839650505050505050919050565b600080fd5b600073ffffffffffffffffffffffffffffffffffffffff82169050919050565b600061016d82610142565b9050919050565b61017d81610162565b811461018857600080fd5b50565b60008135905061019a81610174565b92915050565b6000602082840312156101b6576101b561013d565b5b60006101c48482850161018b565b91505092915050565b6000819050919050565b6101e0816101cd565b82525050565b60006020820190506101fb60008301846101d7565b92915050565b600069ffffffffffffffffffff82169050919050565b61022081610201565b811461022b57600080fd5b50565b60008151905061023d81610217565b92915050565b61024c816101cd565b811461025757600080fd5b50565b60008151905061026981610243565b92915050565b6000819050919050565b6102828161026f565b811461028d57600080fd5b50565b60008151905061029f81610279565b92915050565b600080600080600060a086880312156102c1576102c061013d565b5b60006102cf8882890161022e565b95505060206102e08882890161025a565b94505060406102f188828901610290565b935050606061030288828901610290565b92505060806103138882890161022e565b915050929550929590935056fea26469706673582212202e26c7d2e6c73787202d81bdd92243cad505428472ccde0b2f49f5ff1fa62b1464736f6c63430008090033",
  "immutableReferences": {},
  "source": "// SPDX-License-Identifier: MIT\r\npragma solidity ^0.8.0;\r\n\r\nimport \"@openzeppelin/contracts/token/ERC20/ERC20.sol\";\r\nimport \"@openzeppelin/contracts/token/ERC20/IERC20.sol\";\r\nimport \"./PriceConsumerV3.sol\";\r\n\r\ncontract AlyraStaking {\r\n    IERC20 SdoToken; // the reward token\r\n\r\n    // ========= Entities =========\r\n\r\n    struct Token {\r\n        address tokenAddress;\r\n        uint256 stakedAmount;\r\n        bool isUsed;\r\n        uint256 lastTransactionDate;\r\n    }\r\n\r\n    // ========= Variables =========\r\n\r\n    //_stakingUserBalance between adress token and amount\r\n    mapping(address => mapping(address => Token)) public _stakingUserBalance;\r\n    mapping(address => address[]) _userToTokenAddress;\r\n\r\n    //Oracle init\r\n    PriceConsumerV3 private priceConsumerV3 = new PriceConsumerV3();\r\n\r\n    // ========= Constructor =========\r\n    constructor(address sdoAddress) {\r\n        SdoToken = IERC20(sdoAddress);\r\n    }\r\n\r\n    // ========= Events =========\r\n    event TokenStaked(address tokenAddress, uint256 amount);\r\n    event TokenWithdrawn(address tokenAddress, uint256 amount);\r\n\r\n    // =============================== Functions ===============================\r\n\r\n    /// @notice Stake an amount of a specific ERC20 token\r\n    /// @param tokenAddress address of the staked token\r\n    /// @param amount staked amount\r\n    function stakeToken(address tokenAddress, uint256 amount)\r\n        public\r\n        returns (uint256)\r\n    {\r\n        require(amount > 0, \"You cannot stake 0 token\");\r\n\r\n        //Transfer amount to smartcontract\r\n        IERC20(tokenAddress).transferFrom(msg.sender, address(this), amount);\r\n\r\n        //Add token if not exist on Smart Contract\r\n        if (!_stakingUserBalance[msg.sender][tokenAddress].isUsed) {\r\n            //Add\r\n            _userToTokenAddress[msg.sender].push(tokenAddress);\r\n\r\n            Token memory userToken = Token(\r\n                tokenAddress,\r\n                amount,\r\n                true,\r\n                block.timestamp\r\n            );\r\n            _stakingUserBalance[msg.sender][tokenAddress] = userToken;\r\n        } else {\r\n            //Update\r\n            _stakingUserBalance[msg.sender][tokenAddress]\r\n                .stakedAmount += amount;\r\n        }\r\n\r\n        // TODO : compute reward\r\n\r\n        //fire event\r\n        emit TokenStaked(tokenAddress, amount);\r\n\r\n        return _stakingUserBalance[msg.sender][tokenAddress].stakedAmount;\r\n    }\r\n\r\n    /// @notice Stake an amount of a specific ERC20 token\r\n    /// @param userAddress address of the user\r\n    /// @param tokenAddress address of the staked token\r\n    function getUserBalance(address userAddress, address tokenAddress)\r\n        public\r\n        view\r\n        returns (uint256)\r\n    {\r\n        return _stakingUserBalance[userAddress][tokenAddress].stakedAmount;\r\n    }\r\n\r\n    /// @notice Withdraw an amount of a specific token\r\n    /// @param tokenAddress address of the staked token\r\n    /// @param amount amount to withdraw\r\n    function withdrawTokens(address tokenAddress, uint256 amount) public {\r\n        require(amount > 0, \"You cannot withdraw 0 token !\");\r\n        require(\r\n            _stakingUserBalance[msg.sender][tokenAddress].stakedAmount > 0,\r\n            \"This token never stacked on this contract !\"\r\n        );\r\n        require(\r\n            _stakingUserBalance[msg.sender][tokenAddress].stakedAmount >=\r\n                amount,\r\n            \"Cannot withdraw an amount bigger than stacked !\"\r\n        );\r\n\r\n        IERC20(tokenAddress).transfer(msg.sender, amount);\r\n\r\n        _stakingUserBalance[msg.sender][tokenAddress].stakedAmount -= amount;\r\n        _stakingUserBalance[msg.sender][tokenAddress]\r\n            .lastTransactionDate = block.timestamp;\r\n\r\n        //fire event\r\n        emit TokenWithdrawn(tokenAddress, amount);\r\n    }\r\n\r\n    // ********************* Functions for DAPP *********************\r\n\r\n    /// @notice Return address of RewardToken\r\n    function getSDOTokenAddress() public view returns (address) {\r\n        return address(SdoToken);\r\n    }\r\n\r\n    /// @notice Return list of user's tokens staked on contract\r\n    function getStakedTokens() public view returns (address[] memory) {\r\n        return _userToTokenAddress[msg.sender];\r\n    }\r\n}\r\n",
  "sourcePath": "I:\\Developpement\\GIT\\GitHub\\Alyra\\AlyraStacking\\contracts\\AlyraStaking.sol",
  "compiler": {
    "name": "solc",
    "version": "0.8.9+commit.e5eed63a.Emscripten.clang"
  },
  "schemaVersion": "3.4.3",
  "updatedAt": "2022-01-19T08:39:15.706Z",
  "devdoc": {
    "kind": "dev",
    "methods": {
      "getUserBalance(address,address)": {
        "params": {
          "tokenAddress": "address of the staked token",
          "userAddress": "address of the user"
        }
      },
      "stakeToken(address,uint256)": {
        "params": {
          "amount": "staked amount",
          "tokenAddress": "address of the staked token"
        }
      },
      "withdrawTokens(address,uint256)": {
        "params": {
          "amount": "amount to withdraw",
          "tokenAddress": "address of the staked token"
        }
      }
    },
    "version": 1
  },
  "userdoc": {
    "kind": "user",
    "methods": {
      "getSDOTokenAddress()": {
        "notice": "Return address of RewardToken"
      },
      "getStakedTokens()": {
        "notice": "Return list of user's tokens staked on contract"
      },
      "getUserBalance(address,address)": {
        "notice": "Stake an amount of a specific ERC20 token"
      },
      "stakeToken(address,uint256)": {
        "notice": "Stake an amount of a specific ERC20 token"
      },
      "withdrawTokens(address,uint256)": {
        "notice": "Withdraw an amount of a specific token"
      }
    },
    "version": 1
  }
}